{
	"data": {
		"bytecode": {
			"linkReferences": {},
			"object": "608060405234801561001057600080fd5b50610523806100206000396000f3fe608060405234801561001057600080fd5b506004361061007d5760003560e01c80634f28bf0e1161005b5780634f28bf0e146100dc578063af640d0f146100fa578063b756393014610118578063ef430aa6146101365761007d565b80631be6dd6414610082578063228cb733146100a0578063470dd832146100be575b600080fd5b61008a610154565b6040516100979190610366565b60405180910390f35b6100a861015a565b6040516100b59190610366565b60405180910390f35b6100c6610160565b6040516100d39190610344565b60405180910390f35b6100e46101ee565b6040516100f19190610329565b60405180910390f35b610102610201565b60405161010f9190610366565b60405180910390f35b610120610207565b60405161012d9190610344565b60405180910390f35b61013e610295565b60405161014b919061030e565b60405180910390f35b60035481565b60045481565b6002805461016d90610424565b80601f016020809104026020016040519081016040528092919081815260200182805461019990610424565b80156101e65780601f106101bb576101008083540402835291602001916101e6565b820191906000526020600020905b8154815290600101906020018083116101c957829003601f168201915b505050505081565b600560019054906101000a900460ff1681565b60005481565b6001805461021490610424565b80601f016020809104026020016040519081016040528092919081815260200182805461024090610424565b801561028d5780601f106102625761010080835404028352916020019161028d565b820191906000526020600020905b81548152906001019060200180831161027057829003601f168201915b505050505081565b600560009054906101000a900460ff1681565b6102b1816103cd565b82525050565b6102c0816103df565b82525050565b60006102d182610381565b6102db818561038c565b93506102eb8185602086016103f1565b6102f4816104b4565b840191505092915050565b610308816103c3565b82525050565b600060208201905061032360008301846102a8565b92915050565b600060208201905061033e60008301846102b7565b92915050565b6000602082019050818103600083015261035e81846102c6565b905092915050565b600060208201905061037b60008301846102ff565b92915050565b600081519050919050565b600082825260208201905092915050565b60008190506103ab826104c5565b919050565b60008190506103be826104d9565b919050565b6000819050919050565b60006103d88261039d565b9050919050565b60006103ea826103b0565b9050919050565b60005b8381101561040f5780820151818401526020810190506103f4565b8381111561041e576000848401525b50505050565b6000600282049050600182168061043c57607f821691505b602082108114156104505761044f610485565b5b50919050565b7f4e487b7100000000000000000000000000000000000000000000000000000000600052602160045260246000fd5b7f4e487b7100000000000000000000000000000000000000000000000000000000600052602260045260246000fd5b6000601f19601f8301169050919050565b600981106104d6576104d5610456565b5b50565b600681106104ea576104e9610456565b5b5056fea2646970667358221220d0755dcaf2033d4695b116e0c356849cccae5f8b5b449b0ed03307ef839c45dc64736f6c63430008040033",
			"opcodes": "PUSH1 0x80 PUSH1 0x40 MSTORE CALLVALUE DUP1 ISZERO PUSH2 0x10 JUMPI PUSH1 0x0 DUP1 REVERT JUMPDEST POP PUSH2 0x523 DUP1 PUSH2 0x20 PUSH1 0x0 CODECOPY PUSH1 0x0 RETURN INVALID PUSH1 0x80 PUSH1 0x40 MSTORE CALLVALUE DUP1 ISZERO PUSH2 0x10 JUMPI PUSH1 0x0 DUP1 REVERT JUMPDEST POP PUSH1 0x4 CALLDATASIZE LT PUSH2 0x7D JUMPI PUSH1 0x0 CALLDATALOAD PUSH1 0xE0 SHR DUP1 PUSH4 0x4F28BF0E GT PUSH2 0x5B JUMPI DUP1 PUSH4 0x4F28BF0E EQ PUSH2 0xDC JUMPI DUP1 PUSH4 0xAF640D0F EQ PUSH2 0xFA JUMPI DUP1 PUSH4 0xB7563930 EQ PUSH2 0x118 JUMPI DUP1 PUSH4 0xEF430AA6 EQ PUSH2 0x136 JUMPI PUSH2 0x7D JUMP JUMPDEST DUP1 PUSH4 0x1BE6DD64 EQ PUSH2 0x82 JUMPI DUP1 PUSH4 0x228CB733 EQ PUSH2 0xA0 JUMPI DUP1 PUSH4 0x470DD832 EQ PUSH2 0xBE JUMPI JUMPDEST PUSH1 0x0 DUP1 REVERT JUMPDEST PUSH2 0x8A PUSH2 0x154 JUMP JUMPDEST PUSH1 0x40 MLOAD PUSH2 0x97 SWAP2 SWAP1 PUSH2 0x366 JUMP JUMPDEST PUSH1 0x40 MLOAD DUP1 SWAP2 SUB SWAP1 RETURN JUMPDEST PUSH2 0xA8 PUSH2 0x15A JUMP JUMPDEST PUSH1 0x40 MLOAD PUSH2 0xB5 SWAP2 SWAP1 PUSH2 0x366 JUMP JUMPDEST PUSH1 0x40 MLOAD DUP1 SWAP2 SUB SWAP1 RETURN JUMPDEST PUSH2 0xC6 PUSH2 0x160 JUMP JUMPDEST PUSH1 0x40 MLOAD PUSH2 0xD3 SWAP2 SWAP1 PUSH2 0x344 JUMP JUMPDEST PUSH1 0x40 MLOAD DUP1 SWAP2 SUB SWAP1 RETURN JUMPDEST PUSH2 0xE4 PUSH2 0x1EE JUMP JUMPDEST PUSH1 0x40 MLOAD PUSH2 0xF1 SWAP2 SWAP1 PUSH2 0x329 JUMP JUMPDEST PUSH1 0x40 MLOAD DUP1 SWAP2 SUB SWAP1 RETURN JUMPDEST PUSH2 0x102 PUSH2 0x201 JUMP JUMPDEST PUSH1 0x40 MLOAD PUSH2 0x10F SWAP2 SWAP1 PUSH2 0x366 JUMP JUMPDEST PUSH1 0x40 MLOAD DUP1 SWAP2 SUB SWAP1 RETURN JUMPDEST PUSH2 0x120 PUSH2 0x207 JUMP JUMPDEST PUSH1 0x40 MLOAD PUSH2 0x12D SWAP2 SWAP1 PUSH2 0x344 JUMP JUMPDEST PUSH1 0x40 MLOAD DUP1 SWAP2 SUB SWAP1 RETURN JUMPDEST PUSH2 0x13E PUSH2 0x295 JUMP JUMPDEST PUSH1 0x40 MLOAD PUSH2 0x14B SWAP2 SWAP1 PUSH2 0x30E JUMP JUMPDEST PUSH1 0x40 MLOAD DUP1 SWAP2 SUB SWAP1 RETURN JUMPDEST PUSH1 0x3 SLOAD DUP2 JUMP JUMPDEST PUSH1 0x4 SLOAD DUP2 JUMP JUMPDEST PUSH1 0x2 DUP1 SLOAD PUSH2 0x16D SWAP1 PUSH2 0x424 JUMP JUMPDEST DUP1 PUSH1 0x1F ADD PUSH1 0x20 DUP1 SWAP2 DIV MUL PUSH1 0x20 ADD PUSH1 0x40 MLOAD SWAP1 DUP2 ADD PUSH1 0x40 MSTORE DUP1 SWAP3 SWAP2 SWAP1 DUP2 DUP2 MSTORE PUSH1 0x20 ADD DUP3 DUP1 SLOAD PUSH2 0x199 SWAP1 PUSH2 0x424 JUMP JUMPDEST DUP1 ISZERO PUSH2 0x1E6 JUMPI DUP1 PUSH1 0x1F LT PUSH2 0x1BB JUMPI PUSH2 0x100 DUP1 DUP4 SLOAD DIV MUL DUP4 MSTORE SWAP2 PUSH1 0x20 ADD SWAP2 PUSH2 0x1E6 JUMP JUMPDEST DUP3 ADD SWAP2 SWAP1 PUSH1 0x0 MSTORE PUSH1 0x20 PUSH1 0x0 KECCAK256 SWAP1 JUMPDEST DUP2 SLOAD DUP2 MSTORE SWAP1 PUSH1 0x1 ADD SWAP1 PUSH1 0x20 ADD DUP1 DUP4 GT PUSH2 0x1C9 JUMPI DUP3 SWAP1 SUB PUSH1 0x1F AND DUP3 ADD SWAP2 JUMPDEST POP POP POP POP POP DUP2 JUMP JUMPDEST PUSH1 0x5 PUSH1 0x1 SWAP1 SLOAD SWAP1 PUSH2 0x100 EXP SWAP1 DIV PUSH1 0xFF AND DUP2 JUMP JUMPDEST PUSH1 0x0 SLOAD DUP2 JUMP JUMPDEST PUSH1 0x1 DUP1 SLOAD PUSH2 0x214 SWAP1 PUSH2 0x424 JUMP JUMPDEST DUP1 PUSH1 0x1F ADD PUSH1 0x20 DUP1 SWAP2 DIV MUL PUSH1 0x20 ADD PUSH1 0x40 MLOAD SWAP1 DUP2 ADD PUSH1 0x40 MSTORE DUP1 SWAP3 SWAP2 SWAP1 DUP2 DUP2 MSTORE PUSH1 0x20 ADD DUP3 DUP1 SLOAD PUSH2 0x240 SWAP1 PUSH2 0x424 JUMP JUMPDEST DUP1 ISZERO PUSH2 0x28D JUMPI DUP1 PUSH1 0x1F LT PUSH2 0x262 JUMPI PUSH2 0x100 DUP1 DUP4 SLOAD DIV MUL DUP4 MSTORE SWAP2 PUSH1 0x20 ADD SWAP2 PUSH2 0x28D JUMP JUMPDEST DUP3 ADD SWAP2 SWAP1 PUSH1 0x0 MSTORE PUSH1 0x20 PUSH1 0x0 KECCAK256 SWAP1 JUMPDEST DUP2 SLOAD DUP2 MSTORE SWAP1 PUSH1 0x1 ADD SWAP1 PUSH1 0x20 ADD DUP1 DUP4 GT PUSH2 0x270 JUMPI DUP3 SWAP1 SUB PUSH1 0x1F AND DUP3 ADD SWAP2 JUMPDEST POP POP POP POP POP DUP2 JUMP JUMPDEST PUSH1 0x5 PUSH1 0x0 SWAP1 SLOAD SWAP1 PUSH2 0x100 EXP SWAP1 DIV PUSH1 0xFF AND DUP2 JUMP JUMPDEST PUSH2 0x2B1 DUP2 PUSH2 0x3CD JUMP JUMPDEST DUP3 MSTORE POP POP JUMP JUMPDEST PUSH2 0x2C0 DUP2 PUSH2 0x3DF JUMP JUMPDEST DUP3 MSTORE POP POP JUMP JUMPDEST PUSH1 0x0 PUSH2 0x2D1 DUP3 PUSH2 0x381 JUMP JUMPDEST PUSH2 0x2DB DUP2 DUP6 PUSH2 0x38C JUMP JUMPDEST SWAP4 POP PUSH2 0x2EB DUP2 DUP6 PUSH1 0x20 DUP7 ADD PUSH2 0x3F1 JUMP JUMPDEST PUSH2 0x2F4 DUP2 PUSH2 0x4B4 JUMP JUMPDEST DUP5 ADD SWAP2 POP POP SWAP3 SWAP2 POP POP JUMP JUMPDEST PUSH2 0x308 DUP2 PUSH2 0x3C3 JUMP JUMPDEST DUP3 MSTORE POP POP JUMP JUMPDEST PUSH1 0x0 PUSH1 0x20 DUP3 ADD SWAP1 POP PUSH2 0x323 PUSH1 0x0 DUP4 ADD DUP5 PUSH2 0x2A8 JUMP JUMPDEST SWAP3 SWAP2 POP POP JUMP JUMPDEST PUSH1 0x0 PUSH1 0x20 DUP3 ADD SWAP1 POP PUSH2 0x33E PUSH1 0x0 DUP4 ADD DUP5 PUSH2 0x2B7 JUMP JUMPDEST SWAP3 SWAP2 POP POP JUMP JUMPDEST PUSH1 0x0 PUSH1 0x20 DUP3 ADD SWAP1 POP DUP2 DUP2 SUB PUSH1 0x0 DUP4 ADD MSTORE PUSH2 0x35E DUP2 DUP5 PUSH2 0x2C6 JUMP JUMPDEST SWAP1 POP SWAP3 SWAP2 POP POP JUMP JUMPDEST PUSH1 0x0 PUSH1 0x20 DUP3 ADD SWAP1 POP PUSH2 0x37B PUSH1 0x0 DUP4 ADD DUP5 PUSH2 0x2FF JUMP JUMPDEST SWAP3 SWAP2 POP POP JUMP JUMPDEST PUSH1 0x0 DUP2 MLOAD SWAP1 POP SWAP2 SWAP1 POP JUMP JUMPDEST PUSH1 0x0 DUP3 DUP3 MSTORE PUSH1 0x20 DUP3 ADD SWAP1 POP SWAP3 SWAP2 POP POP JUMP JUMPDEST PUSH1 0x0 DUP2 SWAP1 POP PUSH2 0x3AB DUP3 PUSH2 0x4C5 JUMP JUMPDEST SWAP2 SWAP1 POP JUMP JUMPDEST PUSH1 0x0 DUP2 SWAP1 POP PUSH2 0x3BE DUP3 PUSH2 0x4D9 JUMP JUMPDEST SWAP2 SWAP1 POP JUMP JUMPDEST PUSH1 0x0 DUP2 SWAP1 POP SWAP2 SWAP1 POP JUMP JUMPDEST PUSH1 0x0 PUSH2 0x3D8 DUP3 PUSH2 0x39D JUMP JUMPDEST SWAP1 POP SWAP2 SWAP1 POP JUMP JUMPDEST PUSH1 0x0 PUSH2 0x3EA DUP3 PUSH2 0x3B0 JUMP JUMPDEST SWAP1 POP SWAP2 SWAP1 POP JUMP JUMPDEST PUSH1 0x0 JUMPDEST DUP4 DUP2 LT ISZERO PUSH2 0x40F JUMPI DUP1 DUP3 ADD MLOAD DUP2 DUP5 ADD MSTORE PUSH1 0x20 DUP2 ADD SWAP1 POP PUSH2 0x3F4 JUMP JUMPDEST DUP4 DUP2 GT ISZERO PUSH2 0x41E JUMPI PUSH1 0x0 DUP5 DUP5 ADD MSTORE JUMPDEST POP POP POP POP JUMP JUMPDEST PUSH1 0x0 PUSH1 0x2 DUP3 DIV SWAP1 POP PUSH1 0x1 DUP3 AND DUP1 PUSH2 0x43C JUMPI PUSH1 0x7F DUP3 AND SWAP2 POP JUMPDEST PUSH1 0x20 DUP3 LT DUP2 EQ ISZERO PUSH2 0x450 JUMPI PUSH2 0x44F PUSH2 0x485 JUMP JUMPDEST JUMPDEST POP SWAP2 SWAP1 POP JUMP JUMPDEST PUSH32 0x4E487B7100000000000000000000000000000000000000000000000000000000 PUSH1 0x0 MSTORE PUSH1 0x21 PUSH1 0x4 MSTORE PUSH1 0x24 PUSH1 0x0 REVERT JUMPDEST PUSH32 0x4E487B7100000000000000000000000000000000000000000000000000000000 PUSH1 0x0 MSTORE PUSH1 0x22 PUSH1 0x4 MSTORE PUSH1 0x24 PUSH1 0x0 REVERT JUMPDEST PUSH1 0x0 PUSH1 0x1F NOT PUSH1 0x1F DUP4 ADD AND SWAP1 POP SWAP2 SWAP1 POP JUMP JUMPDEST PUSH1 0x9 DUP2 LT PUSH2 0x4D6 JUMPI PUSH2 0x4D5 PUSH2 0x456 JUMP JUMPDEST JUMPDEST POP JUMP JUMPDEST PUSH1 0x6 DUP2 LT PUSH2 0x4EA JUMPI PUSH2 0x4E9 PUSH2 0x456 JUMP JUMPDEST JUMPDEST POP JUMP INVALID LOG2 PUSH5 0x6970667358 0x22 SLT KECCAK256 0xD0 PUSH22 0x5DCAF2033D4695B116E0C356849CCCAE5F8B5B449B0E 0xD0 CALLER SMOD 0xEF DUP4 SWAP13 GASLIMIT 0xDC PUSH5 0x736F6C6343 STOP ADDMOD DIV STOP CALLER "
		},
		"gasEstimates": {
			"creation": {
				"codeDepositCost": "263000",
				"executionCost": "306",
				"totalCost": "263306"
			},
			"external": {
				"category()": "1326",
				"field()": "1310",
				"id()": "1151",
				"points()": "1130",
				"requirement()": "infinite",
				"reward()": "1152",
				"specifications()": "infinite"
			}
		},
		"methodIdentifiers": {
			"category()": "ef430aa6",
			"field()": "4f28bf0e",
			"id()": "af640d0f",
			"points()": "1be6dd64",
			"requirement()": "b7563930",
			"reward()": "228cb733",
			"specifications()": "470dd832"
		}
	},
	"abi": [
		{
			"inputs": [],
			"name": "category",
			"outputs": [
				{
					"internalType": "enum Issue.Category",
					"name": "",
					"type": "uint8"
				}
			],
			"stateMutability": "view",
			"type": "function"
		},
		{
			"inputs": [],
			"name": "field",
			"outputs": [
				{
					"internalType": "enum Issue.Field",
					"name": "",
					"type": "uint8"
				}
			],
			"stateMutability": "view",
			"type": "function"
		},
		{
			"inputs": [],
			"name": "id",
			"outputs": [
				{
					"internalType": "uint256",
					"name": "",
					"type": "uint256"
				}
			],
			"stateMutability": "view",
			"type": "function"
		},
		{
			"inputs": [],
			"name": "points",
			"outputs": [
				{
					"internalType": "uint256",
					"name": "",
					"type": "uint256"
				}
			],
			"stateMutability": "view",
			"type": "function"
		},
		{
			"inputs": [],
			"name": "requirement",
			"outputs": [
				{
					"internalType": "string",
					"name": "",
					"type": "string"
				}
			],
			"stateMutability": "view",
			"type": "function"
		},
		{
			"inputs": [],
			"name": "reward",
			"outputs": [
				{
					"internalType": "uint256",
					"name": "",
					"type": "uint256"
				}
			],
			"stateMutability": "view",
			"type": "function"
		},
		{
			"inputs": [],
			"name": "specifications",
			"outputs": [
				{
					"internalType": "string",
					"name": "",
					"type": "string"
				}
			],
			"stateMutability": "view",
			"type": "function"
		}
	]
}