{
	"data": {
		"bytecode": {
			"linkReferences": {},
			"object": "608060405234801561001057600080fd5b50611154806100206000396000f3fe608060405234801561001057600080fd5b50600436106100365760003560e01c806359f752451461003b578063f8a518ed1461006b575b600080fd5b6100556004803603810190610050919061011d565b610089565b6040516100629190610199565b60405180910390f35b6100736100e0565b60405161008091906101b4565b60405180910390f35b600080600081548092919061009d9061029c565b9190505583836040516100af906100e6565b6100bb939291906101cf565b604051809103906000f0801580156100d7573d6000803e3d6000fd5b50905092915050565b60005481565b610dd78061034883390190565b60008135905061010281610319565b92915050565b60008135905061011781610330565b92915050565b6000806040838503121561013457610133610314565b5b6000610142858286016100f3565b925050602061015385828601610108565b9150509250929050565b61016681610206565b82525050565b61017581610254565b82525050565b61018481610266565b82525050565b6101938161024a565b82525050565b60006020820190506101ae600083018461017b565b92915050565b60006020820190506101c9600083018461018a565b92915050565b60006060820190506101e4600083018661018a565b6101f1602083018561015d565b6101fe604083018461016c565b949350505050565b60006102118261022a565b9050919050565b600061022382610206565b9050919050565b600073ffffffffffffffffffffffffffffffffffffffff82169050919050565b6000819050919050565b600061025f82610278565b9050919050565b600061027182610278565b9050919050565b60006102838261028a565b9050919050565b60006102958261022a565b9050919050565b60006102a78261024a565b91507fffffffffffffffffffffffffffffffffffffffffffffffffffffffffffffffff8214156102da576102d96102e5565b5b600182019050919050565b7f4e487b7100000000000000000000000000000000000000000000000000000000600052601160045260246000fd5b600080fd5b61032281610206565b811461032d57600080fd5b50565b61033981610218565b811461034457600080fd5b5056fe60806040523480156200001157600080fd5b5060405162000dd738038062000dd783398181016040528101906200003791906200010e565b8260008190555081600160006101000a81548173ffffffffffffffffffffffffffffffffffffffff021916908373ffffffffffffffffffffffffffffffffffffffff16021790555080600360006101000a81548173ffffffffffffffffffffffffffffffffffffffff021916908373ffffffffffffffffffffffffffffffffffffffff1602179055505050506200020f565b600081519050620000da81620001c1565b92915050565b600081519050620000f181620001db565b92915050565b6000815190506200010881620001f5565b92915050565b6000806000606084860312156200012a5762000129620001bc565b5b60006200013a86828701620000f7565b93505060206200014d86828701620000c9565b92505060406200016086828701620000e0565b9150509250925092565b6000620001778262000192565b9050919050565b60006200018b826200016a565b9050919050565b600073ffffffffffffffffffffffffffffffffffffffff82169050919050565b6000819050919050565b600080fd5b620001cc816200016a565b8114620001d857600080fd5b50565b620001e6816200017e565b8114620001f257600080fd5b50565b6200020081620001b2565b81146200020c57600080fd5b50565b610bb8806200021f6000396000f3fe608060405234801561001057600080fd5b50600436106100625760003560e01c806304e15de5146100675780633d391f7014610099578063907d57aa146100b5578063a6c3e6b9146100bf578063aa1e9e43146100dd578063af640d0f1461010d575b600080fd5b610081600480360381019061007c91906107cf565b61012b565b604051610090939291906108f5565b60405180910390f35b6100b360048036038101906100ae9190610775565b6101a5565b005b6100bd61025a565b005b6100c76104b4565b6040516100d4919061085b565b60405180910390f35b6100f760048036038101906100f291906107cf565b6104da565b604051610104919061089f565b60405180910390f35b6101156106a2565b60405161012291906108da565b60405180910390f35b6002818154811061013b57600080fd5b90600052602060002090600302016000915090508060000154908060010160009054906101000a900473ffffffffffffffffffffffffffffffffffffffff16908060020160009054906101000a900473ffffffffffffffffffffffffffffffffffffffff16905083565b600160009054906101000a900473ffffffffffffffffffffffffffffffffffffffff1673ffffffffffffffffffffffffffffffffffffffff163373ffffffffffffffffffffffffffffffffffffffff16146101ff57600080fd5b6001600460008373ffffffffffffffffffffffffffffffffffffffff1673ffffffffffffffffffffffffffffffffffffffff16815260200190815260200160002060006101000a81548160ff02191690831515021790555050565b600160009054906101000a900473ffffffffffffffffffffffffffffffffffffffff1673ffffffffffffffffffffffffffffffffffffffff163373ffffffffffffffffffffffffffffffffffffffff1614806102ff5750600460003373ffffffffffffffffffffffffffffffffffffffff1673ffffffffffffffffffffffffffffffffffffffff16815260200190815260200160002060009054906101000a900460ff165b61033e576040517f08c379a0000000000000000000000000000000000000000000000000000000008152600401610335906108ba565b60405180910390fd5b6002600360009054906101000a900473ffffffffffffffffffffffffffffffffffffffff1673ffffffffffffffffffffffffffffffffffffffff16639e22f4e733306040518363ffffffff1660e01b815260040161039d929190610876565b606060405180830381600087803b1580156103b757600080fd5b505af11580156103cb573d6000803e3d6000fd5b505050506040513d601f19601f820116820180604052508101906103ef91906107a2565b90806001815401808255809150506001900390600052602060002090600302016000909190919091506000820151816000015560208201518160010160006101000a81548173ffffffffffffffffffffffffffffffffffffffff021916908373ffffffffffffffffffffffffffffffffffffffff16021790555060408201518160020160006101000a81548173ffffffffffffffffffffffffffffffffffffffff021916908373ffffffffffffffffffffffffffffffffffffffff1602179055505050565b600160009054906101000a900473ffffffffffffffffffffffffffffffffffffffff1681565b6000600160009054906101000a900473ffffffffffffffffffffffffffffffffffffffff1673ffffffffffffffffffffffffffffffffffffffff163373ffffffffffffffffffffffffffffffffffffffff1614806105815750600460003373ffffffffffffffffffffffffffffffffffffffff1673ffffffffffffffffffffffffffffffffffffffff16815260200190815260200160002060009054906101000a900460ff165b6105c0576040517f08c379a00000000000000000000000000000000000000000000000000000000081526004016105b7906108ba565b60405180910390fd5b60005b6002805490508110156106975782600282815481106105e5576105e4610a9b565b5b90600052602060002090600302016000015414156106845760026000548154811061061357610612610a9b565b5b90600052602060002090600302016000808201600090556001820160006101000a81549073ffffffffffffffffffffffffffffffffffffffff02191690556002820160006101000a81549073ffffffffffffffffffffffffffffffffffffffff02191690555050600191505061069d565b808061068f90610a23565b9150506105c3565b50600090505b919050565b60005481565b6000813590506106b781610b3d565b92915050565b6000815190506106cc81610b3d565b92915050565b6000815190506106e181610b54565b92915050565b6000606082840312156106fd576106fc610af9565b5b610707606061092c565b9050600061071784828501610760565b600083015250602061072b848285016106bd565b602083015250604061073f848285016106d2565b60408301525092915050565b60008135905061075a81610b6b565b92915050565b60008151905061076f81610b6b565b92915050565b60006020828403121561078b5761078a610afe565b5b6000610799848285016106a8565b91505092915050565b6000606082840312156107b8576107b7610afe565b5b60006107c6848285016106e7565b91505092915050565b6000602082840312156107e5576107e4610afe565b5b60006107f38482850161074b565b91505092915050565b61080581610962565b82525050565b61081481610974565b82525050565b610823816109bc565b82525050565b6000610836601583610951565b915061084182610b14565b602082019050919050565b610855816109b2565b82525050565b600060208201905061087060008301846107fc565b92915050565b600060408201905061088b60008301856107fc565b610898602083018461081a565b9392505050565b60006020820190506108b4600083018461080b565b92915050565b600060208201905081810360008301526108d381610829565b9050919050565b60006020820190506108ef600083018461084c565b92915050565b600060608201905061090a600083018661084c565b61091760208301856107fc565b610924604083018461081a565b949350505050565b6000610936610947565b905061094282826109f2565b919050565b6000604051905090565b600082825260208201905092915050565b600061096d82610992565b9050919050565b60008115159050919050565b600061098b82610962565b9050919050565b600073ffffffffffffffffffffffffffffffffffffffff82169050919050565b6000819050919050565b60006109c7826109ce565b9050919050565b60006109d9826109e0565b9050919050565b60006109eb82610992565b9050919050565b6109fb82610b03565b810181811067ffffffffffffffff82111715610a1a57610a19610aca565b5b80604052505050565b6000610a2e826109b2565b91507fffffffffffffffffffffffffffffffffffffffffffffffffffffffffffffffff821415610a6157610a60610a6c565b5b600182019050919050565b7f4e487b7100000000000000000000000000000000000000000000000000000000600052601160045260246000fd5b7f4e487b7100000000000000000000000000000000000000000000000000000000600052603260045260246000fd5b7f4e487b7100000000000000000000000000000000000000000000000000000000600052604160045260246000fd5b600080fd5b600080fd5b6000601f19601f8301169050919050565b7f596f75206c61636b207065726d697373696f6e732e0000000000000000000000600082015250565b610b4681610962565b8114610b5157600080fd5b50565b610b5d81610980565b8114610b6857600080fd5b50565b610b74816109b2565b8114610b7f57600080fd5b5056fea264697066735822122069ea7b504316803483775e60031e8abd95ba4c61778025cb986a1efd6556304364736f6c63430008070033a26469706673582212201a6a510b953d57f85ed44f218c92893a4a47f36fa9fbc4a6ee806507bb89ef3764736f6c63430008070033",
			"opcodes": "PUSH1 0x80 PUSH1 0x40 MSTORE CALLVALUE DUP1 ISZERO PUSH2 0x10 JUMPI PUSH1 0x0 DUP1 REVERT JUMPDEST POP PUSH2 0x1154 DUP1 PUSH2 0x20 PUSH1 0x0 CODECOPY PUSH1 0x0 RETURN INVALID PUSH1 0x80 PUSH1 0x40 MSTORE CALLVALUE DUP1 ISZERO PUSH2 0x10 JUMPI PUSH1 0x0 DUP1 REVERT JUMPDEST POP PUSH1 0x4 CALLDATASIZE LT PUSH2 0x36 JUMPI PUSH1 0x0 CALLDATALOAD PUSH1 0xE0 SHR DUP1 PUSH4 0x59F75245 EQ PUSH2 0x3B JUMPI DUP1 PUSH4 0xF8A518ED EQ PUSH2 0x6B JUMPI JUMPDEST PUSH1 0x0 DUP1 REVERT JUMPDEST PUSH2 0x55 PUSH1 0x4 DUP1 CALLDATASIZE SUB DUP2 ADD SWAP1 PUSH2 0x50 SWAP2 SWAP1 PUSH2 0x11D JUMP JUMPDEST PUSH2 0x89 JUMP JUMPDEST PUSH1 0x40 MLOAD PUSH2 0x62 SWAP2 SWAP1 PUSH2 0x199 JUMP JUMPDEST PUSH1 0x40 MLOAD DUP1 SWAP2 SUB SWAP1 RETURN JUMPDEST PUSH2 0x73 PUSH2 0xE0 JUMP JUMPDEST PUSH1 0x40 MLOAD PUSH2 0x80 SWAP2 SWAP1 PUSH2 0x1B4 JUMP JUMPDEST PUSH1 0x40 MLOAD DUP1 SWAP2 SUB SWAP1 RETURN JUMPDEST PUSH1 0x0 DUP1 PUSH1 0x0 DUP2 SLOAD DUP1 SWAP3 SWAP2 SWAP1 PUSH2 0x9D SWAP1 PUSH2 0x29C JUMP JUMPDEST SWAP2 SWAP1 POP SSTORE DUP4 DUP4 PUSH1 0x40 MLOAD PUSH2 0xAF SWAP1 PUSH2 0xE6 JUMP JUMPDEST PUSH2 0xBB SWAP4 SWAP3 SWAP2 SWAP1 PUSH2 0x1CF JUMP JUMPDEST PUSH1 0x40 MLOAD DUP1 SWAP2 SUB SWAP1 PUSH1 0x0 CREATE DUP1 ISZERO DUP1 ISZERO PUSH2 0xD7 JUMPI RETURNDATASIZE PUSH1 0x0 DUP1 RETURNDATACOPY RETURNDATASIZE PUSH1 0x0 REVERT JUMPDEST POP SWAP1 POP SWAP3 SWAP2 POP POP JUMP JUMPDEST PUSH1 0x0 SLOAD DUP2 JUMP JUMPDEST PUSH2 0xDD7 DUP1 PUSH2 0x348 DUP4 CODECOPY ADD SWAP1 JUMP JUMPDEST PUSH1 0x0 DUP2 CALLDATALOAD SWAP1 POP PUSH2 0x102 DUP2 PUSH2 0x319 JUMP JUMPDEST SWAP3 SWAP2 POP POP JUMP JUMPDEST PUSH1 0x0 DUP2 CALLDATALOAD SWAP1 POP PUSH2 0x117 DUP2 PUSH2 0x330 JUMP JUMPDEST SWAP3 SWAP2 POP POP JUMP JUMPDEST PUSH1 0x0 DUP1 PUSH1 0x40 DUP4 DUP6 SUB SLT ISZERO PUSH2 0x134 JUMPI PUSH2 0x133 PUSH2 0x314 JUMP JUMPDEST JUMPDEST PUSH1 0x0 PUSH2 0x142 DUP6 DUP3 DUP7 ADD PUSH2 0xF3 JUMP JUMPDEST SWAP3 POP POP PUSH1 0x20 PUSH2 0x153 DUP6 DUP3 DUP7 ADD PUSH2 0x108 JUMP JUMPDEST SWAP2 POP POP SWAP3 POP SWAP3 SWAP1 POP JUMP JUMPDEST PUSH2 0x166 DUP2 PUSH2 0x206 JUMP JUMPDEST DUP3 MSTORE POP POP JUMP JUMPDEST PUSH2 0x175 DUP2 PUSH2 0x254 JUMP JUMPDEST DUP3 MSTORE POP POP JUMP JUMPDEST PUSH2 0x184 DUP2 PUSH2 0x266 JUMP JUMPDEST DUP3 MSTORE POP POP JUMP JUMPDEST PUSH2 0x193 DUP2 PUSH2 0x24A JUMP JUMPDEST DUP3 MSTORE POP POP JUMP JUMPDEST PUSH1 0x0 PUSH1 0x20 DUP3 ADD SWAP1 POP PUSH2 0x1AE PUSH1 0x0 DUP4 ADD DUP5 PUSH2 0x17B JUMP JUMPDEST SWAP3 SWAP2 POP POP JUMP JUMPDEST PUSH1 0x0 PUSH1 0x20 DUP3 ADD SWAP1 POP PUSH2 0x1C9 PUSH1 0x0 DUP4 ADD DUP5 PUSH2 0x18A JUMP JUMPDEST SWAP3 SWAP2 POP POP JUMP JUMPDEST PUSH1 0x0 PUSH1 0x60 DUP3 ADD SWAP1 POP PUSH2 0x1E4 PUSH1 0x0 DUP4 ADD DUP7 PUSH2 0x18A JUMP JUMPDEST PUSH2 0x1F1 PUSH1 0x20 DUP4 ADD DUP6 PUSH2 0x15D JUMP JUMPDEST PUSH2 0x1FE PUSH1 0x40 DUP4 ADD DUP5 PUSH2 0x16C JUMP JUMPDEST SWAP5 SWAP4 POP POP POP POP JUMP JUMPDEST PUSH1 0x0 PUSH2 0x211 DUP3 PUSH2 0x22A JUMP JUMPDEST SWAP1 POP SWAP2 SWAP1 POP JUMP JUMPDEST PUSH1 0x0 PUSH2 0x223 DUP3 PUSH2 0x206 JUMP JUMPDEST SWAP1 POP SWAP2 SWAP1 POP JUMP JUMPDEST PUSH1 0x0 PUSH20 0xFFFFFFFFFFFFFFFFFFFFFFFFFFFFFFFFFFFFFFFF DUP3 AND SWAP1 POP SWAP2 SWAP1 POP JUMP JUMPDEST PUSH1 0x0 DUP2 SWAP1 POP SWAP2 SWAP1 POP JUMP JUMPDEST PUSH1 0x0 PUSH2 0x25F DUP3 PUSH2 0x278 JUMP JUMPDEST SWAP1 POP SWAP2 SWAP1 POP JUMP JUMPDEST PUSH1 0x0 PUSH2 0x271 DUP3 PUSH2 0x278 JUMP JUMPDEST SWAP1 POP SWAP2 SWAP1 POP JUMP JUMPDEST PUSH1 0x0 PUSH2 0x283 DUP3 PUSH2 0x28A JUMP JUMPDEST SWAP1 POP SWAP2 SWAP1 POP JUMP JUMPDEST PUSH1 0x0 PUSH2 0x295 DUP3 PUSH2 0x22A JUMP JUMPDEST SWAP1 POP SWAP2 SWAP1 POP JUMP JUMPDEST PUSH1 0x0 PUSH2 0x2A7 DUP3 PUSH2 0x24A JUMP JUMPDEST SWAP2 POP PUSH32 0xFFFFFFFFFFFFFFFFFFFFFFFFFFFFFFFFFFFFFFFFFFFFFFFFFFFFFFFFFFFFFFFF DUP3 EQ ISZERO PUSH2 0x2DA JUMPI PUSH2 0x2D9 PUSH2 0x2E5 JUMP JUMPDEST JUMPDEST PUSH1 0x1 DUP3 ADD SWAP1 POP SWAP2 SWAP1 POP JUMP JUMPDEST PUSH32 0x4E487B7100000000000000000000000000000000000000000000000000000000 PUSH1 0x0 MSTORE PUSH1 0x11 PUSH1 0x4 MSTORE PUSH1 0x24 PUSH1 0x0 REVERT JUMPDEST PUSH1 0x0 DUP1 REVERT JUMPDEST PUSH2 0x322 DUP2 PUSH2 0x206 JUMP JUMPDEST DUP2 EQ PUSH2 0x32D JUMPI PUSH1 0x0 DUP1 REVERT JUMPDEST POP JUMP JUMPDEST PUSH2 0x339 DUP2 PUSH2 0x218 JUMP JUMPDEST DUP2 EQ PUSH2 0x344 JUMPI PUSH1 0x0 DUP1 REVERT JUMPDEST POP JUMP INVALID PUSH1 0x80 PUSH1 0x40 MSTORE CALLVALUE DUP1 ISZERO PUSH3 0x11 JUMPI PUSH1 0x0 DUP1 REVERT JUMPDEST POP PUSH1 0x40 MLOAD PUSH3 0xDD7 CODESIZE SUB DUP1 PUSH3 0xDD7 DUP4 CODECOPY DUP2 DUP2 ADD PUSH1 0x40 MSTORE DUP2 ADD SWAP1 PUSH3 0x37 SWAP2 SWAP1 PUSH3 0x10E JUMP JUMPDEST DUP3 PUSH1 0x0 DUP2 SWAP1 SSTORE POP DUP2 PUSH1 0x1 PUSH1 0x0 PUSH2 0x100 EXP DUP2 SLOAD DUP2 PUSH20 0xFFFFFFFFFFFFFFFFFFFFFFFFFFFFFFFFFFFFFFFF MUL NOT AND SWAP1 DUP4 PUSH20 0xFFFFFFFFFFFFFFFFFFFFFFFFFFFFFFFFFFFFFFFF AND MUL OR SWAP1 SSTORE POP DUP1 PUSH1 0x3 PUSH1 0x0 PUSH2 0x100 EXP DUP2 SLOAD DUP2 PUSH20 0xFFFFFFFFFFFFFFFFFFFFFFFFFFFFFFFFFFFFFFFF MUL NOT AND SWAP1 DUP4 PUSH20 0xFFFFFFFFFFFFFFFFFFFFFFFFFFFFFFFFFFFFFFFF AND MUL OR SWAP1 SSTORE POP POP POP POP PUSH3 0x20F JUMP JUMPDEST PUSH1 0x0 DUP2 MLOAD SWAP1 POP PUSH3 0xDA DUP2 PUSH3 0x1C1 JUMP JUMPDEST SWAP3 SWAP2 POP POP JUMP JUMPDEST PUSH1 0x0 DUP2 MLOAD SWAP1 POP PUSH3 0xF1 DUP2 PUSH3 0x1DB JUMP JUMPDEST SWAP3 SWAP2 POP POP JUMP JUMPDEST PUSH1 0x0 DUP2 MLOAD SWAP1 POP PUSH3 0x108 DUP2 PUSH3 0x1F5 JUMP JUMPDEST SWAP3 SWAP2 POP POP JUMP JUMPDEST PUSH1 0x0 DUP1 PUSH1 0x0 PUSH1 0x60 DUP5 DUP7 SUB SLT ISZERO PUSH3 0x12A JUMPI PUSH3 0x129 PUSH3 0x1BC JUMP JUMPDEST JUMPDEST PUSH1 0x0 PUSH3 0x13A DUP7 DUP3 DUP8 ADD PUSH3 0xF7 JUMP JUMPDEST SWAP4 POP POP PUSH1 0x20 PUSH3 0x14D DUP7 DUP3 DUP8 ADD PUSH3 0xC9 JUMP JUMPDEST SWAP3 POP POP PUSH1 0x40 PUSH3 0x160 DUP7 DUP3 DUP8 ADD PUSH3 0xE0 JUMP JUMPDEST SWAP2 POP POP SWAP3 POP SWAP3 POP SWAP3 JUMP JUMPDEST PUSH1 0x0 PUSH3 0x177 DUP3 PUSH3 0x192 JUMP JUMPDEST SWAP1 POP SWAP2 SWAP1 POP JUMP JUMPDEST PUSH1 0x0 PUSH3 0x18B DUP3 PUSH3 0x16A JUMP JUMPDEST SWAP1 POP SWAP2 SWAP1 POP JUMP JUMPDEST PUSH1 0x0 PUSH20 0xFFFFFFFFFFFFFFFFFFFFFFFFFFFFFFFFFFFFFFFF DUP3 AND SWAP1 POP SWAP2 SWAP1 POP JUMP JUMPDEST PUSH1 0x0 DUP2 SWAP1 POP SWAP2 SWAP1 POP JUMP JUMPDEST PUSH1 0x0 DUP1 REVERT JUMPDEST PUSH3 0x1CC DUP2 PUSH3 0x16A JUMP JUMPDEST DUP2 EQ PUSH3 0x1D8 JUMPI PUSH1 0x0 DUP1 REVERT JUMPDEST POP JUMP JUMPDEST PUSH3 0x1E6 DUP2 PUSH3 0x17E JUMP JUMPDEST DUP2 EQ PUSH3 0x1F2 JUMPI PUSH1 0x0 DUP1 REVERT JUMPDEST POP JUMP JUMPDEST PUSH3 0x200 DUP2 PUSH3 0x1B2 JUMP JUMPDEST DUP2 EQ PUSH3 0x20C JUMPI PUSH1 0x0 DUP1 REVERT JUMPDEST POP JUMP JUMPDEST PUSH2 0xBB8 DUP1 PUSH3 0x21F PUSH1 0x0 CODECOPY PUSH1 0x0 RETURN INVALID PUSH1 0x80 PUSH1 0x40 MSTORE CALLVALUE DUP1 ISZERO PUSH2 0x10 JUMPI PUSH1 0x0 DUP1 REVERT JUMPDEST POP PUSH1 0x4 CALLDATASIZE LT PUSH2 0x62 JUMPI PUSH1 0x0 CALLDATALOAD PUSH1 0xE0 SHR DUP1 PUSH4 0x4E15DE5 EQ PUSH2 0x67 JUMPI DUP1 PUSH4 0x3D391F70 EQ PUSH2 0x99 JUMPI DUP1 PUSH4 0x907D57AA EQ PUSH2 0xB5 JUMPI DUP1 PUSH4 0xA6C3E6B9 EQ PUSH2 0xBF JUMPI DUP1 PUSH4 0xAA1E9E43 EQ PUSH2 0xDD JUMPI DUP1 PUSH4 0xAF640D0F EQ PUSH2 0x10D JUMPI JUMPDEST PUSH1 0x0 DUP1 REVERT JUMPDEST PUSH2 0x81 PUSH1 0x4 DUP1 CALLDATASIZE SUB DUP2 ADD SWAP1 PUSH2 0x7C SWAP2 SWAP1 PUSH2 0x7CF JUMP JUMPDEST PUSH2 0x12B JUMP JUMPDEST PUSH1 0x40 MLOAD PUSH2 0x90 SWAP4 SWAP3 SWAP2 SWAP1 PUSH2 0x8F5 JUMP JUMPDEST PUSH1 0x40 MLOAD DUP1 SWAP2 SUB SWAP1 RETURN JUMPDEST PUSH2 0xB3 PUSH1 0x4 DUP1 CALLDATASIZE SUB DUP2 ADD SWAP1 PUSH2 0xAE SWAP2 SWAP1 PUSH2 0x775 JUMP JUMPDEST PUSH2 0x1A5 JUMP JUMPDEST STOP JUMPDEST PUSH2 0xBD PUSH2 0x25A JUMP JUMPDEST STOP JUMPDEST PUSH2 0xC7 PUSH2 0x4B4 JUMP JUMPDEST PUSH1 0x40 MLOAD PUSH2 0xD4 SWAP2 SWAP1 PUSH2 0x85B JUMP JUMPDEST PUSH1 0x40 MLOAD DUP1 SWAP2 SUB SWAP1 RETURN JUMPDEST PUSH2 0xF7 PUSH1 0x4 DUP1 CALLDATASIZE SUB DUP2 ADD SWAP1 PUSH2 0xF2 SWAP2 SWAP1 PUSH2 0x7CF JUMP JUMPDEST PUSH2 0x4DA JUMP JUMPDEST PUSH1 0x40 MLOAD PUSH2 0x104 SWAP2 SWAP1 PUSH2 0x89F JUMP JUMPDEST PUSH1 0x40 MLOAD DUP1 SWAP2 SUB SWAP1 RETURN JUMPDEST PUSH2 0x115 PUSH2 0x6A2 JUMP JUMPDEST PUSH1 0x40 MLOAD PUSH2 0x122 SWAP2 SWAP1 PUSH2 0x8DA JUMP JUMPDEST PUSH1 0x40 MLOAD DUP1 SWAP2 SUB SWAP1 RETURN JUMPDEST PUSH1 0x2 DUP2 DUP2 SLOAD DUP2 LT PUSH2 0x13B JUMPI PUSH1 0x0 DUP1 REVERT JUMPDEST SWAP1 PUSH1 0x0 MSTORE PUSH1 0x20 PUSH1 0x0 KECCAK256 SWAP1 PUSH1 0x3 MUL ADD PUSH1 0x0 SWAP2 POP SWAP1 POP DUP1 PUSH1 0x0 ADD SLOAD SWAP1 DUP1 PUSH1 0x1 ADD PUSH1 0x0 SWAP1 SLOAD SWAP1 PUSH2 0x100 EXP SWAP1 DIV PUSH20 0xFFFFFFFFFFFFFFFFFFFFFFFFFFFFFFFFFFFFFFFF AND SWAP1 DUP1 PUSH1 0x2 ADD PUSH1 0x0 SWAP1 SLOAD SWAP1 PUSH2 0x100 EXP SWAP1 DIV PUSH20 0xFFFFFFFFFFFFFFFFFFFFFFFFFFFFFFFFFFFFFFFF AND SWAP1 POP DUP4 JUMP JUMPDEST PUSH1 0x1 PUSH1 0x0 SWAP1 SLOAD SWAP1 PUSH2 0x100 EXP SWAP1 DIV PUSH20 0xFFFFFFFFFFFFFFFFFFFFFFFFFFFFFFFFFFFFFFFF AND PUSH20 0xFFFFFFFFFFFFFFFFFFFFFFFFFFFFFFFFFFFFFFFF AND CALLER PUSH20 0xFFFFFFFFFFFFFFFFFFFFFFFFFFFFFFFFFFFFFFFF AND EQ PUSH2 0x1FF JUMPI PUSH1 0x0 DUP1 REVERT JUMPDEST PUSH1 0x1 PUSH1 0x4 PUSH1 0x0 DUP4 PUSH20 0xFFFFFFFFFFFFFFFFFFFFFFFFFFFFFFFFFFFFFFFF AND PUSH20 0xFFFFFFFFFFFFFFFFFFFFFFFFFFFFFFFFFFFFFFFF AND DUP2 MSTORE PUSH1 0x20 ADD SWAP1 DUP2 MSTORE PUSH1 0x20 ADD PUSH1 0x0 KECCAK256 PUSH1 0x0 PUSH2 0x100 EXP DUP2 SLOAD DUP2 PUSH1 0xFF MUL NOT AND SWAP1 DUP4 ISZERO ISZERO MUL OR SWAP1 SSTORE POP POP JUMP JUMPDEST PUSH1 0x1 PUSH1 0x0 SWAP1 SLOAD SWAP1 PUSH2 0x100 EXP SWAP1 DIV PUSH20 0xFFFFFFFFFFFFFFFFFFFFFFFFFFFFFFFFFFFFFFFF AND PUSH20 0xFFFFFFFFFFFFFFFFFFFFFFFFFFFFFFFFFFFFFFFF AND CALLER PUSH20 0xFFFFFFFFFFFFFFFFFFFFFFFFFFFFFFFFFFFFFFFF AND EQ DUP1 PUSH2 0x2FF JUMPI POP PUSH1 0x4 PUSH1 0x0 CALLER PUSH20 0xFFFFFFFFFFFFFFFFFFFFFFFFFFFFFFFFFFFFFFFF AND PUSH20 0xFFFFFFFFFFFFFFFFFFFFFFFFFFFFFFFFFFFFFFFF AND DUP2 MSTORE PUSH1 0x20 ADD SWAP1 DUP2 MSTORE PUSH1 0x20 ADD PUSH1 0x0 KECCAK256 PUSH1 0x0 SWAP1 SLOAD SWAP1 PUSH2 0x100 EXP SWAP1 DIV PUSH1 0xFF AND JUMPDEST PUSH2 0x33E JUMPI PUSH1 0x40 MLOAD PUSH32 0x8C379A000000000000000000000000000000000000000000000000000000000 DUP2 MSTORE PUSH1 0x4 ADD PUSH2 0x335 SWAP1 PUSH2 0x8BA JUMP JUMPDEST PUSH1 0x40 MLOAD DUP1 SWAP2 SUB SWAP1 REVERT JUMPDEST PUSH1 0x2 PUSH1 0x3 PUSH1 0x0 SWAP1 SLOAD SWAP1 PUSH2 0x100 EXP SWAP1 DIV PUSH20 0xFFFFFFFFFFFFFFFFFFFFFFFFFFFFFFFFFFFFFFFF AND PUSH20 0xFFFFFFFFFFFFFFFFFFFFFFFFFFFFFFFFFFFFFFFF AND PUSH4 0x9E22F4E7 CALLER ADDRESS PUSH1 0x40 MLOAD DUP4 PUSH4 0xFFFFFFFF AND PUSH1 0xE0 SHL DUP2 MSTORE PUSH1 0x4 ADD PUSH2 0x39D SWAP3 SWAP2 SWAP1 PUSH2 0x876 JUMP JUMPDEST PUSH1 0x60 PUSH1 0x40 MLOAD DUP1 DUP4 SUB DUP2 PUSH1 0x0 DUP8 DUP1 EXTCODESIZE ISZERO DUP1 ISZERO PUSH2 0x3B7 JUMPI PUSH1 0x0 DUP1 REVERT JUMPDEST POP GAS CALL ISZERO DUP1 ISZERO PUSH2 0x3CB JUMPI RETURNDATASIZE PUSH1 0x0 DUP1 RETURNDATACOPY RETURNDATASIZE PUSH1 0x0 REVERT JUMPDEST POP POP POP POP PUSH1 0x40 MLOAD RETURNDATASIZE PUSH1 0x1F NOT PUSH1 0x1F DUP3 ADD AND DUP3 ADD DUP1 PUSH1 0x40 MSTORE POP DUP2 ADD SWAP1 PUSH2 0x3EF SWAP2 SWAP1 PUSH2 0x7A2 JUMP JUMPDEST SWAP1 DUP1 PUSH1 0x1 DUP2 SLOAD ADD DUP1 DUP3 SSTORE DUP1 SWAP2 POP POP PUSH1 0x1 SWAP1 SUB SWAP1 PUSH1 0x0 MSTORE PUSH1 0x20 PUSH1 0x0 KECCAK256 SWAP1 PUSH1 0x3 MUL ADD PUSH1 0x0 SWAP1 SWAP2 SWAP1 SWAP2 SWAP1 SWAP2 POP PUSH1 0x0 DUP3 ADD MLOAD DUP2 PUSH1 0x0 ADD SSTORE PUSH1 0x20 DUP3 ADD MLOAD DUP2 PUSH1 0x1 ADD PUSH1 0x0 PUSH2 0x100 EXP DUP2 SLOAD DUP2 PUSH20 0xFFFFFFFFFFFFFFFFFFFFFFFFFFFFFFFFFFFFFFFF MUL NOT AND SWAP1 DUP4 PUSH20 0xFFFFFFFFFFFFFFFFFFFFFFFFFFFFFFFFFFFFFFFF AND MUL OR SWAP1 SSTORE POP PUSH1 0x40 DUP3 ADD MLOAD DUP2 PUSH1 0x2 ADD PUSH1 0x0 PUSH2 0x100 EXP DUP2 SLOAD DUP2 PUSH20 0xFFFFFFFFFFFFFFFFFFFFFFFFFFFFFFFFFFFFFFFF MUL NOT AND SWAP1 DUP4 PUSH20 0xFFFFFFFFFFFFFFFFFFFFFFFFFFFFFFFFFFFFFFFF AND MUL OR SWAP1 SSTORE POP POP POP JUMP JUMPDEST PUSH1 0x1 PUSH1 0x0 SWAP1 SLOAD SWAP1 PUSH2 0x100 EXP SWAP1 DIV PUSH20 0xFFFFFFFFFFFFFFFFFFFFFFFFFFFFFFFFFFFFFFFF AND DUP2 JUMP JUMPDEST PUSH1 0x0 PUSH1 0x1 PUSH1 0x0 SWAP1 SLOAD SWAP1 PUSH2 0x100 EXP SWAP1 DIV PUSH20 0xFFFFFFFFFFFFFFFFFFFFFFFFFFFFFFFFFFFFFFFF AND PUSH20 0xFFFFFFFFFFFFFFFFFFFFFFFFFFFFFFFFFFFFFFFF AND CALLER PUSH20 0xFFFFFFFFFFFFFFFFFFFFFFFFFFFFFFFFFFFFFFFF AND EQ DUP1 PUSH2 0x581 JUMPI POP PUSH1 0x4 PUSH1 0x0 CALLER PUSH20 0xFFFFFFFFFFFFFFFFFFFFFFFFFFFFFFFFFFFFFFFF AND PUSH20 0xFFFFFFFFFFFFFFFFFFFFFFFFFFFFFFFFFFFFFFFF AND DUP2 MSTORE PUSH1 0x20 ADD SWAP1 DUP2 MSTORE PUSH1 0x20 ADD PUSH1 0x0 KECCAK256 PUSH1 0x0 SWAP1 SLOAD SWAP1 PUSH2 0x100 EXP SWAP1 DIV PUSH1 0xFF AND JUMPDEST PUSH2 0x5C0 JUMPI PUSH1 0x40 MLOAD PUSH32 0x8C379A000000000000000000000000000000000000000000000000000000000 DUP2 MSTORE PUSH1 0x4 ADD PUSH2 0x5B7 SWAP1 PUSH2 0x8BA JUMP JUMPDEST PUSH1 0x40 MLOAD DUP1 SWAP2 SUB SWAP1 REVERT JUMPDEST PUSH1 0x0 JUMPDEST PUSH1 0x2 DUP1 SLOAD SWAP1 POP DUP2 LT ISZERO PUSH2 0x697 JUMPI DUP3 PUSH1 0x2 DUP3 DUP2 SLOAD DUP2 LT PUSH2 0x5E5 JUMPI PUSH2 0x5E4 PUSH2 0xA9B JUMP JUMPDEST JUMPDEST SWAP1 PUSH1 0x0 MSTORE PUSH1 0x20 PUSH1 0x0 KECCAK256 SWAP1 PUSH1 0x3 MUL ADD PUSH1 0x0 ADD SLOAD EQ ISZERO PUSH2 0x684 JUMPI PUSH1 0x2 PUSH1 0x0 SLOAD DUP2 SLOAD DUP2 LT PUSH2 0x613 JUMPI PUSH2 0x612 PUSH2 0xA9B JUMP JUMPDEST JUMPDEST SWAP1 PUSH1 0x0 MSTORE PUSH1 0x20 PUSH1 0x0 KECCAK256 SWAP1 PUSH1 0x3 MUL ADD PUSH1 0x0 DUP1 DUP3 ADD PUSH1 0x0 SWAP1 SSTORE PUSH1 0x1 DUP3 ADD PUSH1 0x0 PUSH2 0x100 EXP DUP2 SLOAD SWAP1 PUSH20 0xFFFFFFFFFFFFFFFFFFFFFFFFFFFFFFFFFFFFFFFF MUL NOT AND SWAP1 SSTORE PUSH1 0x2 DUP3 ADD PUSH1 0x0 PUSH2 0x100 EXP DUP2 SLOAD SWAP1 PUSH20 0xFFFFFFFFFFFFFFFFFFFFFFFFFFFFFFFFFFFFFFFF MUL NOT AND SWAP1 SSTORE POP POP PUSH1 0x1 SWAP2 POP POP PUSH2 0x69D JUMP JUMPDEST DUP1 DUP1 PUSH2 0x68F SWAP1 PUSH2 0xA23 JUMP JUMPDEST SWAP2 POP POP PUSH2 0x5C3 JUMP JUMPDEST POP PUSH1 0x0 SWAP1 POP JUMPDEST SWAP2 SWAP1 POP JUMP JUMPDEST PUSH1 0x0 SLOAD DUP2 JUMP JUMPDEST PUSH1 0x0 DUP2 CALLDATALOAD SWAP1 POP PUSH2 0x6B7 DUP2 PUSH2 0xB3D JUMP JUMPDEST SWAP3 SWAP2 POP POP JUMP JUMPDEST PUSH1 0x0 DUP2 MLOAD SWAP1 POP PUSH2 0x6CC DUP2 PUSH2 0xB3D JUMP JUMPDEST SWAP3 SWAP2 POP POP JUMP JUMPDEST PUSH1 0x0 DUP2 MLOAD SWAP1 POP PUSH2 0x6E1 DUP2 PUSH2 0xB54 JUMP JUMPDEST SWAP3 SWAP2 POP POP JUMP JUMPDEST PUSH1 0x0 PUSH1 0x60 DUP3 DUP5 SUB SLT ISZERO PUSH2 0x6FD JUMPI PUSH2 0x6FC PUSH2 0xAF9 JUMP JUMPDEST JUMPDEST PUSH2 0x707 PUSH1 0x60 PUSH2 0x92C JUMP JUMPDEST SWAP1 POP PUSH1 0x0 PUSH2 0x717 DUP5 DUP3 DUP6 ADD PUSH2 0x760 JUMP JUMPDEST PUSH1 0x0 DUP4 ADD MSTORE POP PUSH1 0x20 PUSH2 0x72B DUP5 DUP3 DUP6 ADD PUSH2 0x6BD JUMP JUMPDEST PUSH1 0x20 DUP4 ADD MSTORE POP PUSH1 0x40 PUSH2 0x73F DUP5 DUP3 DUP6 ADD PUSH2 0x6D2 JUMP JUMPDEST PUSH1 0x40 DUP4 ADD MSTORE POP SWAP3 SWAP2 POP POP JUMP JUMPDEST PUSH1 0x0 DUP2 CALLDATALOAD SWAP1 POP PUSH2 0x75A DUP2 PUSH2 0xB6B JUMP JUMPDEST SWAP3 SWAP2 POP POP JUMP JUMPDEST PUSH1 0x0 DUP2 MLOAD SWAP1 POP PUSH2 0x76F DUP2 PUSH2 0xB6B JUMP JUMPDEST SWAP3 SWAP2 POP POP JUMP JUMPDEST PUSH1 0x0 PUSH1 0x20 DUP3 DUP5 SUB SLT ISZERO PUSH2 0x78B JUMPI PUSH2 0x78A PUSH2 0xAFE JUMP JUMPDEST JUMPDEST PUSH1 0x0 PUSH2 0x799 DUP5 DUP3 DUP6 ADD PUSH2 0x6A8 JUMP JUMPDEST SWAP2 POP POP SWAP3 SWAP2 POP POP JUMP JUMPDEST PUSH1 0x0 PUSH1 0x60 DUP3 DUP5 SUB SLT ISZERO PUSH2 0x7B8 JUMPI PUSH2 0x7B7 PUSH2 0xAFE JUMP JUMPDEST JUMPDEST PUSH1 0x0 PUSH2 0x7C6 DUP5 DUP3 DUP6 ADD PUSH2 0x6E7 JUMP JUMPDEST SWAP2 POP POP SWAP3 SWAP2 POP POP JUMP JUMPDEST PUSH1 0x0 PUSH1 0x20 DUP3 DUP5 SUB SLT ISZERO PUSH2 0x7E5 JUMPI PUSH2 0x7E4 PUSH2 0xAFE JUMP JUMPDEST JUMPDEST PUSH1 0x0 PUSH2 0x7F3 DUP5 DUP3 DUP6 ADD PUSH2 0x74B JUMP JUMPDEST SWAP2 POP POP SWAP3 SWAP2 POP POP JUMP JUMPDEST PUSH2 0x805 DUP2 PUSH2 0x962 JUMP JUMPDEST DUP3 MSTORE POP POP JUMP JUMPDEST PUSH2 0x814 DUP2 PUSH2 0x974 JUMP JUMPDEST DUP3 MSTORE POP POP JUMP JUMPDEST PUSH2 0x823 DUP2 PUSH2 0x9BC JUMP JUMPDEST DUP3 MSTORE POP POP JUMP JUMPDEST PUSH1 0x0 PUSH2 0x836 PUSH1 0x15 DUP4 PUSH2 0x951 JUMP JUMPDEST SWAP2 POP PUSH2 0x841 DUP3 PUSH2 0xB14 JUMP JUMPDEST PUSH1 0x20 DUP3 ADD SWAP1 POP SWAP2 SWAP1 POP JUMP JUMPDEST PUSH2 0x855 DUP2 PUSH2 0x9B2 JUMP JUMPDEST DUP3 MSTORE POP POP JUMP JUMPDEST PUSH1 0x0 PUSH1 0x20 DUP3 ADD SWAP1 POP PUSH2 0x870 PUSH1 0x0 DUP4 ADD DUP5 PUSH2 0x7FC JUMP JUMPDEST SWAP3 SWAP2 POP POP JUMP JUMPDEST PUSH1 0x0 PUSH1 0x40 DUP3 ADD SWAP1 POP PUSH2 0x88B PUSH1 0x0 DUP4 ADD DUP6 PUSH2 0x7FC JUMP JUMPDEST PUSH2 0x898 PUSH1 0x20 DUP4 ADD DUP5 PUSH2 0x81A JUMP JUMPDEST SWAP4 SWAP3 POP POP POP JUMP JUMPDEST PUSH1 0x0 PUSH1 0x20 DUP3 ADD SWAP1 POP PUSH2 0x8B4 PUSH1 0x0 DUP4 ADD DUP5 PUSH2 0x80B JUMP JUMPDEST SWAP3 SWAP2 POP POP JUMP JUMPDEST PUSH1 0x0 PUSH1 0x20 DUP3 ADD SWAP1 POP DUP2 DUP2 SUB PUSH1 0x0 DUP4 ADD MSTORE PUSH2 0x8D3 DUP2 PUSH2 0x829 JUMP JUMPDEST SWAP1 POP SWAP2 SWAP1 POP JUMP JUMPDEST PUSH1 0x0 PUSH1 0x20 DUP3 ADD SWAP1 POP PUSH2 0x8EF PUSH1 0x0 DUP4 ADD DUP5 PUSH2 0x84C JUMP JUMPDEST SWAP3 SWAP2 POP POP JUMP JUMPDEST PUSH1 0x0 PUSH1 0x60 DUP3 ADD SWAP1 POP PUSH2 0x90A PUSH1 0x0 DUP4 ADD DUP7 PUSH2 0x84C JUMP JUMPDEST PUSH2 0x917 PUSH1 0x20 DUP4 ADD DUP6 PUSH2 0x7FC JUMP JUMPDEST PUSH2 0x924 PUSH1 0x40 DUP4 ADD DUP5 PUSH2 0x81A JUMP JUMPDEST SWAP5 SWAP4 POP POP POP POP JUMP JUMPDEST PUSH1 0x0 PUSH2 0x936 PUSH2 0x947 JUMP JUMPDEST SWAP1 POP PUSH2 0x942 DUP3 DUP3 PUSH2 0x9F2 JUMP JUMPDEST SWAP2 SWAP1 POP JUMP JUMPDEST PUSH1 0x0 PUSH1 0x40 MLOAD SWAP1 POP SWAP1 JUMP JUMPDEST PUSH1 0x0 DUP3 DUP3 MSTORE PUSH1 0x20 DUP3 ADD SWAP1 POP SWAP3 SWAP2 POP POP JUMP JUMPDEST PUSH1 0x0 PUSH2 0x96D DUP3 PUSH2 0x992 JUMP JUMPDEST SWAP1 POP SWAP2 SWAP1 POP JUMP JUMPDEST PUSH1 0x0 DUP2 ISZERO ISZERO SWAP1 POP SWAP2 SWAP1 POP JUMP JUMPDEST PUSH1 0x0 PUSH2 0x98B DUP3 PUSH2 0x962 JUMP JUMPDEST SWAP1 POP SWAP2 SWAP1 POP JUMP JUMPDEST PUSH1 0x0 PUSH20 0xFFFFFFFFFFFFFFFFFFFFFFFFFFFFFFFFFFFFFFFF DUP3 AND SWAP1 POP SWAP2 SWAP1 POP JUMP JUMPDEST PUSH1 0x0 DUP2 SWAP1 POP SWAP2 SWAP1 POP JUMP JUMPDEST PUSH1 0x0 PUSH2 0x9C7 DUP3 PUSH2 0x9CE JUMP JUMPDEST SWAP1 POP SWAP2 SWAP1 POP JUMP JUMPDEST PUSH1 0x0 PUSH2 0x9D9 DUP3 PUSH2 0x9E0 JUMP JUMPDEST SWAP1 POP SWAP2 SWAP1 POP JUMP JUMPDEST PUSH1 0x0 PUSH2 0x9EB DUP3 PUSH2 0x992 JUMP JUMPDEST SWAP1 POP SWAP2 SWAP1 POP JUMP JUMPDEST PUSH2 0x9FB DUP3 PUSH2 0xB03 JUMP JUMPDEST DUP2 ADD DUP2 DUP2 LT PUSH8 0xFFFFFFFFFFFFFFFF DUP3 GT OR ISZERO PUSH2 0xA1A JUMPI PUSH2 0xA19 PUSH2 0xACA JUMP JUMPDEST JUMPDEST DUP1 PUSH1 0x40 MSTORE POP POP POP JUMP JUMPDEST PUSH1 0x0 PUSH2 0xA2E DUP3 PUSH2 0x9B2 JUMP JUMPDEST SWAP2 POP PUSH32 0xFFFFFFFFFFFFFFFFFFFFFFFFFFFFFFFFFFFFFFFFFFFFFFFFFFFFFFFFFFFFFFFF DUP3 EQ ISZERO PUSH2 0xA61 JUMPI PUSH2 0xA60 PUSH2 0xA6C JUMP JUMPDEST JUMPDEST PUSH1 0x1 DUP3 ADD SWAP1 POP SWAP2 SWAP1 POP JUMP JUMPDEST PUSH32 0x4E487B7100000000000000000000000000000000000000000000000000000000 PUSH1 0x0 MSTORE PUSH1 0x11 PUSH1 0x4 MSTORE PUSH1 0x24 PUSH1 0x0 REVERT JUMPDEST PUSH32 0x4E487B7100000000000000000000000000000000000000000000000000000000 PUSH1 0x0 MSTORE PUSH1 0x32 PUSH1 0x4 MSTORE PUSH1 0x24 PUSH1 0x0 REVERT JUMPDEST PUSH32 0x4E487B7100000000000000000000000000000000000000000000000000000000 PUSH1 0x0 MSTORE PUSH1 0x41 PUSH1 0x4 MSTORE PUSH1 0x24 PUSH1 0x0 REVERT JUMPDEST PUSH1 0x0 DUP1 REVERT JUMPDEST PUSH1 0x0 DUP1 REVERT JUMPDEST PUSH1 0x0 PUSH1 0x1F NOT PUSH1 0x1F DUP4 ADD AND SWAP1 POP SWAP2 SWAP1 POP JUMP JUMPDEST PUSH32 0x596F75206C61636B207065726D697373696F6E732E0000000000000000000000 PUSH1 0x0 DUP3 ADD MSTORE POP JUMP JUMPDEST PUSH2 0xB46 DUP2 PUSH2 0x962 JUMP JUMPDEST DUP2 EQ PUSH2 0xB51 JUMPI PUSH1 0x0 DUP1 REVERT JUMPDEST POP JUMP JUMPDEST PUSH2 0xB5D DUP2 PUSH2 0x980 JUMP JUMPDEST DUP2 EQ PUSH2 0xB68 JUMPI PUSH1 0x0 DUP1 REVERT JUMPDEST POP JUMP JUMPDEST PUSH2 0xB74 DUP2 PUSH2 0x9B2 JUMP JUMPDEST DUP2 EQ PUSH2 0xB7F JUMPI PUSH1 0x0 DUP1 REVERT JUMPDEST POP JUMP INVALID LOG2 PUSH5 0x6970667358 0x22 SLT KECCAK256 PUSH10 0xEA7B504316803483775E PUSH1 0x3 0x1E DUP11 0xBD SWAP6 0xBA 0x4C PUSH2 0x7780 0x25 0xCB SWAP9 PUSH11 0x1EFD6556304364736F6C63 NUMBER STOP ADDMOD SMOD STOP CALLER LOG2 PUSH5 0x6970667358 0x22 SLT KECCAK256 BYTE PUSH11 0x510B953D57F85ED44F218C SWAP3 DUP10 GASPRICE 0x4A SELFBALANCE RETURN PUSH16 0xA9FBC4A6EE806507BB89EF3764736F6C PUSH4 0x43000807 STOP CALLER "
		},
		"gasEstimates": {
			"creation": {
				"codeDepositCost": "887200",
				"executionCost": "922",
				"totalCost": "888122"
			},
			"external": {
				"createProject(address,address)": "infinite",
				"projectCounter()": "2429"
			}
		},
		"methodIdentifiers": {
			"createProject(address,address)": "59f75245",
			"projectCounter()": "f8a518ed"
		}
	},
	"abi": [
		{
			"inputs": [
				{
					"internalType": "address",
					"name": "_author",
					"type": "address"
				},
				{
					"internalType": "contract IssueFactory",
					"name": "_issueFactory",
					"type": "address"
				}
			],
			"name": "createProject",
			"outputs": [
				{
					"internalType": "contract Project",
					"name": "",
					"type": "address"
				}
			],
			"stateMutability": "nonpayable",
			"type": "function"
		},
		{
			"inputs": [],
			"name": "projectCounter",
			"outputs": [
				{
					"internalType": "uint256",
					"name": "",
					"type": "uint256"
				}
			],
			"stateMutability": "view",
			"type": "function"
		}
	]
}