{
	"data": {
		"bytecode": {
			"linkReferences": {},
			"object": "60806040523480156200001157600080fd5b50604051620014743803806200147483398181016040528101906200003791906200010e565b8260008190555081600160006101000a81548173ffffffffffffffffffffffffffffffffffffffff021916908373ffffffffffffffffffffffffffffffffffffffff16021790555080600360006101000a81548173ffffffffffffffffffffffffffffffffffffffff021916908373ffffffffffffffffffffffffffffffffffffffff1602179055505050506200020f565b600081519050620000da81620001c1565b92915050565b600081519050620000f181620001db565b92915050565b6000815190506200010881620001f5565b92915050565b6000806000606084860312156200012a5762000129620001bc565b5b60006200013a86828701620000f7565b93505060206200014d86828701620000c9565b92505060406200016086828701620000e0565b9150509250925092565b6000620001778262000192565b9050919050565b60006200018b826200016a565b9050919050565b600073ffffffffffffffffffffffffffffffffffffffff82169050919050565b6000819050919050565b600080fd5b620001cc816200016a565b8114620001d857600080fd5b50565b620001e6816200017e565b8114620001f257600080fd5b50565b6200020081620001b2565b81146200020c57600080fd5b50565b611255806200021f6000396000f3fe608060405234801561001057600080fd5b50600436106100885760003560e01c8063acb82e291161005b578063acb82e2914610101578063af640d0f14610131578063b07c7f611461014f578063ee86eb081461017f57610088565b80633d391f701461008d57806385738b48146100a9578063907d57aa146100d9578063a6c3e6b9146100e3575b600080fd5b6100a760048036038101906100a29190610bdb565b6101b2565b005b6100c360048036038101906100be9190610c35565b610267565b6040516100d09190610e5b565b60405180910390f35b6100e1610467565b005b6100eb6106e4565b6040516100f89190610e17565b60405180910390f35b61011b60048036038101906101169190610c35565b61070a565b6040516101289190610e5b565b60405180910390f35b6101396108b9565b6040516101469190610eb8565b60405180910390f35b61016960048036038101906101649190610c62565b6108bf565b6040516101769190610e7d565b60405180910390f35b61019960048036038101906101949190610c35565b6109ed565b6040516101a99493929190610ed3565b60405180910390f35b600160009054906101000a900473ffffffffffffffffffffffffffffffffffffffff1673ffffffffffffffffffffffffffffffffffffffff163373ffffffffffffffffffffffffffffffffffffffff161461020c57600080fd5b6001600460008373ffffffffffffffffffffffffffffffffffffffff1673ffffffffffffffffffffffffffffffffffffffff16815260200190815260200160002060006101000a81548160ff02191690831515021790555050565b606060008267ffffffffffffffff81111561028557610284611143565b5b6040519080825280602002602001820160405280156102be57816020015b6102ab610a6a565b8152602001906001900390816102a35790505b50905060005b8381101561045d57600060028111156102e0576102df6110e5565b5b6002600083815260200190815260200160002060020160149054906101000a900460ff166002811115610316576103156110e5565b5b141561044a5760026000828152602001908152602001600020604051806080016040529081600082015481526020016001820160009054906101000a900473ffffffffffffffffffffffffffffffffffffffff1673ffffffffffffffffffffffffffffffffffffffff1673ffffffffffffffffffffffffffffffffffffffff1681526020016002820160009054906101000a900473ffffffffffffffffffffffffffffffffffffffff1673ffffffffffffffffffffffffffffffffffffffff1673ffffffffffffffffffffffffffffffffffffffff1681526020016002820160149054906101000a900460ff166002811115610415576104146110e5565b5b6002811115610427576104266110e5565b5b8152505082828151811061043e5761043d611114565b5b60200260200101819052505b80806104559061106d565b9150506102c4565b5080915050919050565b600160009054906101000a900473ffffffffffffffffffffffffffffffffffffffff1673ffffffffffffffffffffffffffffffffffffffff163373ffffffffffffffffffffffffffffffffffffffff16148061050c5750600460003373ffffffffffffffffffffffffffffffffffffffff1673ffffffffffffffffffffffffffffffffffffffff16815260200190815260200160002060009054906101000a900460ff165b61054b576040517f08c379a000000000000000000000000000000000000000000000000000000000815260040161054290610e98565b60405180910390fd5b6000600360009054906101000a900473ffffffffffffffffffffffffffffffffffffffff1673ffffffffffffffffffffffffffffffffffffffff16639e22f4e733306040518363ffffffff1660e01b81526004016105aa929190610e32565b608060405180830381600087803b1580156105c457600080fd5b505af11580156105d8573d6000803e3d6000fd5b505050506040513d601f19601f820116820180604052508101906105fc9190610c08565b90508060026000836000015181526020019081526020016000206000820151816000015560208201518160010160006101000a81548173ffffffffffffffffffffffffffffffffffffffff021916908373ffffffffffffffffffffffffffffffffffffffff16021790555060408201518160020160006101000a81548173ffffffffffffffffffffffffffffffffffffffff021916908373ffffffffffffffffffffffffffffffffffffffff16021790555060608201518160020160146101000a81548160ff021916908360028111156106d9576106d86110e5565b5b021790555090505050565b600160009054906101000a900473ffffffffffffffffffffffffffffffffffffffff1681565b606060008267ffffffffffffffff81111561072857610727611143565b5b60405190808252806020026020018201604052801561076157816020015b61074e610a6a565b8152602001906001900390816107465790505b50905060005b838110156108af5760026000828152602001908152602001600020604051806080016040529081600082015481526020016001820160009054906101000a900473ffffffffffffffffffffffffffffffffffffffff1673ffffffffffffffffffffffffffffffffffffffff1673ffffffffffffffffffffffffffffffffffffffff1681526020016002820160009054906101000a900473ffffffffffffffffffffffffffffffffffffffff1673ffffffffffffffffffffffffffffffffffffffff1673ffffffffffffffffffffffffffffffffffffffff1681526020016002820160149054906101000a900460ff166002811115610868576108676110e5565b5b600281111561087a576108796110e5565b5b8152505082828151811061089157610890611114565b5b602002602001018190525080806108a79061106d565b915050610767565b5080915050919050565b60005481565b6000600160009054906101000a900473ffffffffffffffffffffffffffffffffffffffff1673ffffffffffffffffffffffffffffffffffffffff163373ffffffffffffffffffffffffffffffffffffffff1614806109665750600460003373ffffffffffffffffffffffffffffffffffffffff1673ffffffffffffffffffffffffffffffffffffffff16815260200190815260200160002060009054906101000a900460ff165b6109a5576040517f08c379a000000000000000000000000000000000000000000000000000000000815260040161099c90610e98565b60405180910390fd5b816002600085815260200190815260200160002060020160146101000a81548160ff021916908360028111156109de576109dd6110e5565b5b02179055506000905092915050565b60026020528060005260406000206000915090508060000154908060010160009054906101000a900473ffffffffffffffffffffffffffffffffffffffff16908060020160009054906101000a900473ffffffffffffffffffffffffffffffffffffffff16908060020160149054906101000a900460ff16905084565b604051806080016040528060008152602001600073ffffffffffffffffffffffffffffffffffffffff168152602001600073ffffffffffffffffffffffffffffffffffffffff16815260200160006002811115610aca57610ac96110e5565b5b81525090565b600081359050610adf816111ca565b92915050565b600081519050610af4816111ca565b92915050565b600081519050610b09816111e1565b92915050565b600081359050610b1e816111f8565b92915050565b600081519050610b33816111f8565b92915050565b600060808284031215610b4f57610b4e611172565b5b610b596080610f18565b90506000610b6984828501610bc6565b6000830152506020610b7d84828501610ae5565b6020830152506040610b9184828501610afa565b6040830152506060610ba584828501610b24565b60608301525092915050565b600081359050610bc081611208565b92915050565b600081519050610bd581611208565b92915050565b600060208284031215610bf157610bf0611177565b5b6000610bff84828501610ad0565b91505092915050565b600060808284031215610c1e57610c1d611177565b5b6000610c2c84828501610b39565b91505092915050565b600060208284031215610c4b57610c4a611177565b5b6000610c5984828501610bb1565b91505092915050565b60008060408385031215610c7957610c78611177565b5b6000610c8785828601610bb1565b9250506020610c9885828601610b0f565b9150509250929050565b6000610cae8383610da4565b60808301905092915050565b610cc381610f87565b82525050565b610cd281610f87565b82525050565b6000610ce382610f4d565b610ced8185610f65565b9350610cf883610f3d565b8060005b83811015610d29578151610d108882610ca2565b9750610d1b83610f58565b925050600181019050610cfc565b5085935050505092915050565b610d3f81610f99565b82525050565b610d4e81610ff4565b82525050565b610d5d81610ff4565b82525050565b610d6c81611006565b82525050565b610d7b81611006565b82525050565b6000610d8e601583610f76565b9150610d998261118d565b602082019050919050565b608082016000820151610dba6000850182610df9565b506020820151610dcd6020850182610cba565b506040820151610de06040850182610d45565b506060820151610df36060850182610d63565b50505050565b610e0281610fea565b82525050565b610e1181610fea565b82525050565b6000602082019050610e2c6000830184610cc9565b92915050565b6000604082019050610e476000830185610cc9565b610e546020830184610d54565b9392505050565b60006020820190508181036000830152610e758184610cd8565b905092915050565b6000602082019050610e926000830184610d36565b92915050565b60006020820190508181036000830152610eb181610d81565b9050919050565b6000602082019050610ecd6000830184610e08565b92915050565b6000608082019050610ee86000830187610e08565b610ef56020830186610cc9565b610f026040830185610d54565b610f0f6060830184610d72565b95945050505050565b6000610f22610f33565b9050610f2e828261103c565b919050565b6000604051905090565b6000819050602082019050919050565b600081519050919050565b6000602082019050919050565b600082825260208201905092915050565b600082825260208201905092915050565b6000610f9282610fca565b9050919050565b60008115159050919050565b6000610fb082610f87565b9050919050565b6000819050610fc5826111b6565b919050565b600073ffffffffffffffffffffffffffffffffffffffff82169050919050565b6000819050919050565b6000610fff82611018565b9050919050565b600061101182610fb7565b9050919050565b60006110238261102a565b9050919050565b600061103582610fca565b9050919050565b6110458261117c565b810181811067ffffffffffffffff8211171561106457611063611143565b5b80604052505050565b600061107882610fea565b91507fffffffffffffffffffffffffffffffffffffffffffffffffffffffffffffffff8214156110ab576110aa6110b6565b5b600182019050919050565b7f4e487b7100000000000000000000000000000000000000000000000000000000600052601160045260246000fd5b7f4e487b7100000000000000000000000000000000000000000000000000000000600052602160045260246000fd5b7f4e487b7100000000000000000000000000000000000000000000000000000000600052603260045260246000fd5b7f4e487b7100000000000000000000000000000000000000000000000000000000600052604160045260246000fd5b600080fd5b600080fd5b6000601f19601f8301169050919050565b7f596f75206c61636b207065726d697373696f6e732e0000000000000000000000600082015250565b600381106111c7576111c66110e5565b5b50565b6111d381610f87565b81146111de57600080fd5b50565b6111ea81610fa5565b81146111f557600080fd5b50565b6003811061120557600080fd5b50565b61121181610fea565b811461121c57600080fd5b5056fea26469706673582212204390e41861eae8c73d1e9c25d51585cb2bce0c5b5e73f803333f1a3636e3996a64736f6c63430008070033",
			"opcodes": "PUSH1 0x80 PUSH1 0x40 MSTORE CALLVALUE DUP1 ISZERO PUSH3 0x11 JUMPI PUSH1 0x0 DUP1 REVERT JUMPDEST POP PUSH1 0x40 MLOAD PUSH3 0x1474 CODESIZE SUB DUP1 PUSH3 0x1474 DUP4 CODECOPY DUP2 DUP2 ADD PUSH1 0x40 MSTORE DUP2 ADD SWAP1 PUSH3 0x37 SWAP2 SWAP1 PUSH3 0x10E JUMP JUMPDEST DUP3 PUSH1 0x0 DUP2 SWAP1 SSTORE POP DUP2 PUSH1 0x1 PUSH1 0x0 PUSH2 0x100 EXP DUP2 SLOAD DUP2 PUSH20 0xFFFFFFFFFFFFFFFFFFFFFFFFFFFFFFFFFFFFFFFF MUL NOT AND SWAP1 DUP4 PUSH20 0xFFFFFFFFFFFFFFFFFFFFFFFFFFFFFFFFFFFFFFFF AND MUL OR SWAP1 SSTORE POP DUP1 PUSH1 0x3 PUSH1 0x0 PUSH2 0x100 EXP DUP2 SLOAD DUP2 PUSH20 0xFFFFFFFFFFFFFFFFFFFFFFFFFFFFFFFFFFFFFFFF MUL NOT AND SWAP1 DUP4 PUSH20 0xFFFFFFFFFFFFFFFFFFFFFFFFFFFFFFFFFFFFFFFF AND MUL OR SWAP1 SSTORE POP POP POP POP PUSH3 0x20F JUMP JUMPDEST PUSH1 0x0 DUP2 MLOAD SWAP1 POP PUSH3 0xDA DUP2 PUSH3 0x1C1 JUMP JUMPDEST SWAP3 SWAP2 POP POP JUMP JUMPDEST PUSH1 0x0 DUP2 MLOAD SWAP1 POP PUSH3 0xF1 DUP2 PUSH3 0x1DB JUMP JUMPDEST SWAP3 SWAP2 POP POP JUMP JUMPDEST PUSH1 0x0 DUP2 MLOAD SWAP1 POP PUSH3 0x108 DUP2 PUSH3 0x1F5 JUMP JUMPDEST SWAP3 SWAP2 POP POP JUMP JUMPDEST PUSH1 0x0 DUP1 PUSH1 0x0 PUSH1 0x60 DUP5 DUP7 SUB SLT ISZERO PUSH3 0x12A JUMPI PUSH3 0x129 PUSH3 0x1BC JUMP JUMPDEST JUMPDEST PUSH1 0x0 PUSH3 0x13A DUP7 DUP3 DUP8 ADD PUSH3 0xF7 JUMP JUMPDEST SWAP4 POP POP PUSH1 0x20 PUSH3 0x14D DUP7 DUP3 DUP8 ADD PUSH3 0xC9 JUMP JUMPDEST SWAP3 POP POP PUSH1 0x40 PUSH3 0x160 DUP7 DUP3 DUP8 ADD PUSH3 0xE0 JUMP JUMPDEST SWAP2 POP POP SWAP3 POP SWAP3 POP SWAP3 JUMP JUMPDEST PUSH1 0x0 PUSH3 0x177 DUP3 PUSH3 0x192 JUMP JUMPDEST SWAP1 POP SWAP2 SWAP1 POP JUMP JUMPDEST PUSH1 0x0 PUSH3 0x18B DUP3 PUSH3 0x16A JUMP JUMPDEST SWAP1 POP SWAP2 SWAP1 POP JUMP JUMPDEST PUSH1 0x0 PUSH20 0xFFFFFFFFFFFFFFFFFFFFFFFFFFFFFFFFFFFFFFFF DUP3 AND SWAP1 POP SWAP2 SWAP1 POP JUMP JUMPDEST PUSH1 0x0 DUP2 SWAP1 POP SWAP2 SWAP1 POP JUMP JUMPDEST PUSH1 0x0 DUP1 REVERT JUMPDEST PUSH3 0x1CC DUP2 PUSH3 0x16A JUMP JUMPDEST DUP2 EQ PUSH3 0x1D8 JUMPI PUSH1 0x0 DUP1 REVERT JUMPDEST POP JUMP JUMPDEST PUSH3 0x1E6 DUP2 PUSH3 0x17E JUMP JUMPDEST DUP2 EQ PUSH3 0x1F2 JUMPI PUSH1 0x0 DUP1 REVERT JUMPDEST POP JUMP JUMPDEST PUSH3 0x200 DUP2 PUSH3 0x1B2 JUMP JUMPDEST DUP2 EQ PUSH3 0x20C JUMPI PUSH1 0x0 DUP1 REVERT JUMPDEST POP JUMP JUMPDEST PUSH2 0x1255 DUP1 PUSH3 0x21F PUSH1 0x0 CODECOPY PUSH1 0x0 RETURN INVALID PUSH1 0x80 PUSH1 0x40 MSTORE CALLVALUE DUP1 ISZERO PUSH2 0x10 JUMPI PUSH1 0x0 DUP1 REVERT JUMPDEST POP PUSH1 0x4 CALLDATASIZE LT PUSH2 0x88 JUMPI PUSH1 0x0 CALLDATALOAD PUSH1 0xE0 SHR DUP1 PUSH4 0xACB82E29 GT PUSH2 0x5B JUMPI DUP1 PUSH4 0xACB82E29 EQ PUSH2 0x101 JUMPI DUP1 PUSH4 0xAF640D0F EQ PUSH2 0x131 JUMPI DUP1 PUSH4 0xB07C7F61 EQ PUSH2 0x14F JUMPI DUP1 PUSH4 0xEE86EB08 EQ PUSH2 0x17F JUMPI PUSH2 0x88 JUMP JUMPDEST DUP1 PUSH4 0x3D391F70 EQ PUSH2 0x8D JUMPI DUP1 PUSH4 0x85738B48 EQ PUSH2 0xA9 JUMPI DUP1 PUSH4 0x907D57AA EQ PUSH2 0xD9 JUMPI DUP1 PUSH4 0xA6C3E6B9 EQ PUSH2 0xE3 JUMPI JUMPDEST PUSH1 0x0 DUP1 REVERT JUMPDEST PUSH2 0xA7 PUSH1 0x4 DUP1 CALLDATASIZE SUB DUP2 ADD SWAP1 PUSH2 0xA2 SWAP2 SWAP1 PUSH2 0xBDB JUMP JUMPDEST PUSH2 0x1B2 JUMP JUMPDEST STOP JUMPDEST PUSH2 0xC3 PUSH1 0x4 DUP1 CALLDATASIZE SUB DUP2 ADD SWAP1 PUSH2 0xBE SWAP2 SWAP1 PUSH2 0xC35 JUMP JUMPDEST PUSH2 0x267 JUMP JUMPDEST PUSH1 0x40 MLOAD PUSH2 0xD0 SWAP2 SWAP1 PUSH2 0xE5B JUMP JUMPDEST PUSH1 0x40 MLOAD DUP1 SWAP2 SUB SWAP1 RETURN JUMPDEST PUSH2 0xE1 PUSH2 0x467 JUMP JUMPDEST STOP JUMPDEST PUSH2 0xEB PUSH2 0x6E4 JUMP JUMPDEST PUSH1 0x40 MLOAD PUSH2 0xF8 SWAP2 SWAP1 PUSH2 0xE17 JUMP JUMPDEST PUSH1 0x40 MLOAD DUP1 SWAP2 SUB SWAP1 RETURN JUMPDEST PUSH2 0x11B PUSH1 0x4 DUP1 CALLDATASIZE SUB DUP2 ADD SWAP1 PUSH2 0x116 SWAP2 SWAP1 PUSH2 0xC35 JUMP JUMPDEST PUSH2 0x70A JUMP JUMPDEST PUSH1 0x40 MLOAD PUSH2 0x128 SWAP2 SWAP1 PUSH2 0xE5B JUMP JUMPDEST PUSH1 0x40 MLOAD DUP1 SWAP2 SUB SWAP1 RETURN JUMPDEST PUSH2 0x139 PUSH2 0x8B9 JUMP JUMPDEST PUSH1 0x40 MLOAD PUSH2 0x146 SWAP2 SWAP1 PUSH2 0xEB8 JUMP JUMPDEST PUSH1 0x40 MLOAD DUP1 SWAP2 SUB SWAP1 RETURN JUMPDEST PUSH2 0x169 PUSH1 0x4 DUP1 CALLDATASIZE SUB DUP2 ADD SWAP1 PUSH2 0x164 SWAP2 SWAP1 PUSH2 0xC62 JUMP JUMPDEST PUSH2 0x8BF JUMP JUMPDEST PUSH1 0x40 MLOAD PUSH2 0x176 SWAP2 SWAP1 PUSH2 0xE7D JUMP JUMPDEST PUSH1 0x40 MLOAD DUP1 SWAP2 SUB SWAP1 RETURN JUMPDEST PUSH2 0x199 PUSH1 0x4 DUP1 CALLDATASIZE SUB DUP2 ADD SWAP1 PUSH2 0x194 SWAP2 SWAP1 PUSH2 0xC35 JUMP JUMPDEST PUSH2 0x9ED JUMP JUMPDEST PUSH1 0x40 MLOAD PUSH2 0x1A9 SWAP5 SWAP4 SWAP3 SWAP2 SWAP1 PUSH2 0xED3 JUMP JUMPDEST PUSH1 0x40 MLOAD DUP1 SWAP2 SUB SWAP1 RETURN JUMPDEST PUSH1 0x1 PUSH1 0x0 SWAP1 SLOAD SWAP1 PUSH2 0x100 EXP SWAP1 DIV PUSH20 0xFFFFFFFFFFFFFFFFFFFFFFFFFFFFFFFFFFFFFFFF AND PUSH20 0xFFFFFFFFFFFFFFFFFFFFFFFFFFFFFFFFFFFFFFFF AND CALLER PUSH20 0xFFFFFFFFFFFFFFFFFFFFFFFFFFFFFFFFFFFFFFFF AND EQ PUSH2 0x20C JUMPI PUSH1 0x0 DUP1 REVERT JUMPDEST PUSH1 0x1 PUSH1 0x4 PUSH1 0x0 DUP4 PUSH20 0xFFFFFFFFFFFFFFFFFFFFFFFFFFFFFFFFFFFFFFFF AND PUSH20 0xFFFFFFFFFFFFFFFFFFFFFFFFFFFFFFFFFFFFFFFF AND DUP2 MSTORE PUSH1 0x20 ADD SWAP1 DUP2 MSTORE PUSH1 0x20 ADD PUSH1 0x0 KECCAK256 PUSH1 0x0 PUSH2 0x100 EXP DUP2 SLOAD DUP2 PUSH1 0xFF MUL NOT AND SWAP1 DUP4 ISZERO ISZERO MUL OR SWAP1 SSTORE POP POP JUMP JUMPDEST PUSH1 0x60 PUSH1 0x0 DUP3 PUSH8 0xFFFFFFFFFFFFFFFF DUP2 GT ISZERO PUSH2 0x285 JUMPI PUSH2 0x284 PUSH2 0x1143 JUMP JUMPDEST JUMPDEST PUSH1 0x40 MLOAD SWAP1 DUP1 DUP3 MSTORE DUP1 PUSH1 0x20 MUL PUSH1 0x20 ADD DUP3 ADD PUSH1 0x40 MSTORE DUP1 ISZERO PUSH2 0x2BE JUMPI DUP2 PUSH1 0x20 ADD JUMPDEST PUSH2 0x2AB PUSH2 0xA6A JUMP JUMPDEST DUP2 MSTORE PUSH1 0x20 ADD SWAP1 PUSH1 0x1 SWAP1 SUB SWAP1 DUP2 PUSH2 0x2A3 JUMPI SWAP1 POP JUMPDEST POP SWAP1 POP PUSH1 0x0 JUMPDEST DUP4 DUP2 LT ISZERO PUSH2 0x45D JUMPI PUSH1 0x0 PUSH1 0x2 DUP2 GT ISZERO PUSH2 0x2E0 JUMPI PUSH2 0x2DF PUSH2 0x10E5 JUMP JUMPDEST JUMPDEST PUSH1 0x2 PUSH1 0x0 DUP4 DUP2 MSTORE PUSH1 0x20 ADD SWAP1 DUP2 MSTORE PUSH1 0x20 ADD PUSH1 0x0 KECCAK256 PUSH1 0x2 ADD PUSH1 0x14 SWAP1 SLOAD SWAP1 PUSH2 0x100 EXP SWAP1 DIV PUSH1 0xFF AND PUSH1 0x2 DUP2 GT ISZERO PUSH2 0x316 JUMPI PUSH2 0x315 PUSH2 0x10E5 JUMP JUMPDEST JUMPDEST EQ ISZERO PUSH2 0x44A JUMPI PUSH1 0x2 PUSH1 0x0 DUP3 DUP2 MSTORE PUSH1 0x20 ADD SWAP1 DUP2 MSTORE PUSH1 0x20 ADD PUSH1 0x0 KECCAK256 PUSH1 0x40 MLOAD DUP1 PUSH1 0x80 ADD PUSH1 0x40 MSTORE SWAP1 DUP2 PUSH1 0x0 DUP3 ADD SLOAD DUP2 MSTORE PUSH1 0x20 ADD PUSH1 0x1 DUP3 ADD PUSH1 0x0 SWAP1 SLOAD SWAP1 PUSH2 0x100 EXP SWAP1 DIV PUSH20 0xFFFFFFFFFFFFFFFFFFFFFFFFFFFFFFFFFFFFFFFF AND PUSH20 0xFFFFFFFFFFFFFFFFFFFFFFFFFFFFFFFFFFFFFFFF AND PUSH20 0xFFFFFFFFFFFFFFFFFFFFFFFFFFFFFFFFFFFFFFFF AND DUP2 MSTORE PUSH1 0x20 ADD PUSH1 0x2 DUP3 ADD PUSH1 0x0 SWAP1 SLOAD SWAP1 PUSH2 0x100 EXP SWAP1 DIV PUSH20 0xFFFFFFFFFFFFFFFFFFFFFFFFFFFFFFFFFFFFFFFF AND PUSH20 0xFFFFFFFFFFFFFFFFFFFFFFFFFFFFFFFFFFFFFFFF AND PUSH20 0xFFFFFFFFFFFFFFFFFFFFFFFFFFFFFFFFFFFFFFFF AND DUP2 MSTORE PUSH1 0x20 ADD PUSH1 0x2 DUP3 ADD PUSH1 0x14 SWAP1 SLOAD SWAP1 PUSH2 0x100 EXP SWAP1 DIV PUSH1 0xFF AND PUSH1 0x2 DUP2 GT ISZERO PUSH2 0x415 JUMPI PUSH2 0x414 PUSH2 0x10E5 JUMP JUMPDEST JUMPDEST PUSH1 0x2 DUP2 GT ISZERO PUSH2 0x427 JUMPI PUSH2 0x426 PUSH2 0x10E5 JUMP JUMPDEST JUMPDEST DUP2 MSTORE POP POP DUP3 DUP3 DUP2 MLOAD DUP2 LT PUSH2 0x43E JUMPI PUSH2 0x43D PUSH2 0x1114 JUMP JUMPDEST JUMPDEST PUSH1 0x20 MUL PUSH1 0x20 ADD ADD DUP2 SWAP1 MSTORE POP JUMPDEST DUP1 DUP1 PUSH2 0x455 SWAP1 PUSH2 0x106D JUMP JUMPDEST SWAP2 POP POP PUSH2 0x2C4 JUMP JUMPDEST POP DUP1 SWAP2 POP POP SWAP2 SWAP1 POP JUMP JUMPDEST PUSH1 0x1 PUSH1 0x0 SWAP1 SLOAD SWAP1 PUSH2 0x100 EXP SWAP1 DIV PUSH20 0xFFFFFFFFFFFFFFFFFFFFFFFFFFFFFFFFFFFFFFFF AND PUSH20 0xFFFFFFFFFFFFFFFFFFFFFFFFFFFFFFFFFFFFFFFF AND CALLER PUSH20 0xFFFFFFFFFFFFFFFFFFFFFFFFFFFFFFFFFFFFFFFF AND EQ DUP1 PUSH2 0x50C JUMPI POP PUSH1 0x4 PUSH1 0x0 CALLER PUSH20 0xFFFFFFFFFFFFFFFFFFFFFFFFFFFFFFFFFFFFFFFF AND PUSH20 0xFFFFFFFFFFFFFFFFFFFFFFFFFFFFFFFFFFFFFFFF AND DUP2 MSTORE PUSH1 0x20 ADD SWAP1 DUP2 MSTORE PUSH1 0x20 ADD PUSH1 0x0 KECCAK256 PUSH1 0x0 SWAP1 SLOAD SWAP1 PUSH2 0x100 EXP SWAP1 DIV PUSH1 0xFF AND JUMPDEST PUSH2 0x54B JUMPI PUSH1 0x40 MLOAD PUSH32 0x8C379A000000000000000000000000000000000000000000000000000000000 DUP2 MSTORE PUSH1 0x4 ADD PUSH2 0x542 SWAP1 PUSH2 0xE98 JUMP JUMPDEST PUSH1 0x40 MLOAD DUP1 SWAP2 SUB SWAP1 REVERT JUMPDEST PUSH1 0x0 PUSH1 0x3 PUSH1 0x0 SWAP1 SLOAD SWAP1 PUSH2 0x100 EXP SWAP1 DIV PUSH20 0xFFFFFFFFFFFFFFFFFFFFFFFFFFFFFFFFFFFFFFFF AND PUSH20 0xFFFFFFFFFFFFFFFFFFFFFFFFFFFFFFFFFFFFFFFF AND PUSH4 0x9E22F4E7 CALLER ADDRESS PUSH1 0x40 MLOAD DUP4 PUSH4 0xFFFFFFFF AND PUSH1 0xE0 SHL DUP2 MSTORE PUSH1 0x4 ADD PUSH2 0x5AA SWAP3 SWAP2 SWAP1 PUSH2 0xE32 JUMP JUMPDEST PUSH1 0x80 PUSH1 0x40 MLOAD DUP1 DUP4 SUB DUP2 PUSH1 0x0 DUP8 DUP1 EXTCODESIZE ISZERO DUP1 ISZERO PUSH2 0x5C4 JUMPI PUSH1 0x0 DUP1 REVERT JUMPDEST POP GAS CALL ISZERO DUP1 ISZERO PUSH2 0x5D8 JUMPI RETURNDATASIZE PUSH1 0x0 DUP1 RETURNDATACOPY RETURNDATASIZE PUSH1 0x0 REVERT JUMPDEST POP POP POP POP PUSH1 0x40 MLOAD RETURNDATASIZE PUSH1 0x1F NOT PUSH1 0x1F DUP3 ADD AND DUP3 ADD DUP1 PUSH1 0x40 MSTORE POP DUP2 ADD SWAP1 PUSH2 0x5FC SWAP2 SWAP1 PUSH2 0xC08 JUMP JUMPDEST SWAP1 POP DUP1 PUSH1 0x2 PUSH1 0x0 DUP4 PUSH1 0x0 ADD MLOAD DUP2 MSTORE PUSH1 0x20 ADD SWAP1 DUP2 MSTORE PUSH1 0x20 ADD PUSH1 0x0 KECCAK256 PUSH1 0x0 DUP3 ADD MLOAD DUP2 PUSH1 0x0 ADD SSTORE PUSH1 0x20 DUP3 ADD MLOAD DUP2 PUSH1 0x1 ADD PUSH1 0x0 PUSH2 0x100 EXP DUP2 SLOAD DUP2 PUSH20 0xFFFFFFFFFFFFFFFFFFFFFFFFFFFFFFFFFFFFFFFF MUL NOT AND SWAP1 DUP4 PUSH20 0xFFFFFFFFFFFFFFFFFFFFFFFFFFFFFFFFFFFFFFFF AND MUL OR SWAP1 SSTORE POP PUSH1 0x40 DUP3 ADD MLOAD DUP2 PUSH1 0x2 ADD PUSH1 0x0 PUSH2 0x100 EXP DUP2 SLOAD DUP2 PUSH20 0xFFFFFFFFFFFFFFFFFFFFFFFFFFFFFFFFFFFFFFFF MUL NOT AND SWAP1 DUP4 PUSH20 0xFFFFFFFFFFFFFFFFFFFFFFFFFFFFFFFFFFFFFFFF AND MUL OR SWAP1 SSTORE POP PUSH1 0x60 DUP3 ADD MLOAD DUP2 PUSH1 0x2 ADD PUSH1 0x14 PUSH2 0x100 EXP DUP2 SLOAD DUP2 PUSH1 0xFF MUL NOT AND SWAP1 DUP4 PUSH1 0x2 DUP2 GT ISZERO PUSH2 0x6D9 JUMPI PUSH2 0x6D8 PUSH2 0x10E5 JUMP JUMPDEST JUMPDEST MUL OR SWAP1 SSTORE POP SWAP1 POP POP POP JUMP JUMPDEST PUSH1 0x1 PUSH1 0x0 SWAP1 SLOAD SWAP1 PUSH2 0x100 EXP SWAP1 DIV PUSH20 0xFFFFFFFFFFFFFFFFFFFFFFFFFFFFFFFFFFFFFFFF AND DUP2 JUMP JUMPDEST PUSH1 0x60 PUSH1 0x0 DUP3 PUSH8 0xFFFFFFFFFFFFFFFF DUP2 GT ISZERO PUSH2 0x728 JUMPI PUSH2 0x727 PUSH2 0x1143 JUMP JUMPDEST JUMPDEST PUSH1 0x40 MLOAD SWAP1 DUP1 DUP3 MSTORE DUP1 PUSH1 0x20 MUL PUSH1 0x20 ADD DUP3 ADD PUSH1 0x40 MSTORE DUP1 ISZERO PUSH2 0x761 JUMPI DUP2 PUSH1 0x20 ADD JUMPDEST PUSH2 0x74E PUSH2 0xA6A JUMP JUMPDEST DUP2 MSTORE PUSH1 0x20 ADD SWAP1 PUSH1 0x1 SWAP1 SUB SWAP1 DUP2 PUSH2 0x746 JUMPI SWAP1 POP JUMPDEST POP SWAP1 POP PUSH1 0x0 JUMPDEST DUP4 DUP2 LT ISZERO PUSH2 0x8AF JUMPI PUSH1 0x2 PUSH1 0x0 DUP3 DUP2 MSTORE PUSH1 0x20 ADD SWAP1 DUP2 MSTORE PUSH1 0x20 ADD PUSH1 0x0 KECCAK256 PUSH1 0x40 MLOAD DUP1 PUSH1 0x80 ADD PUSH1 0x40 MSTORE SWAP1 DUP2 PUSH1 0x0 DUP3 ADD SLOAD DUP2 MSTORE PUSH1 0x20 ADD PUSH1 0x1 DUP3 ADD PUSH1 0x0 SWAP1 SLOAD SWAP1 PUSH2 0x100 EXP SWAP1 DIV PUSH20 0xFFFFFFFFFFFFFFFFFFFFFFFFFFFFFFFFFFFFFFFF AND PUSH20 0xFFFFFFFFFFFFFFFFFFFFFFFFFFFFFFFFFFFFFFFF AND PUSH20 0xFFFFFFFFFFFFFFFFFFFFFFFFFFFFFFFFFFFFFFFF AND DUP2 MSTORE PUSH1 0x20 ADD PUSH1 0x2 DUP3 ADD PUSH1 0x0 SWAP1 SLOAD SWAP1 PUSH2 0x100 EXP SWAP1 DIV PUSH20 0xFFFFFFFFFFFFFFFFFFFFFFFFFFFFFFFFFFFFFFFF AND PUSH20 0xFFFFFFFFFFFFFFFFFFFFFFFFFFFFFFFFFFFFFFFF AND PUSH20 0xFFFFFFFFFFFFFFFFFFFFFFFFFFFFFFFFFFFFFFFF AND DUP2 MSTORE PUSH1 0x20 ADD PUSH1 0x2 DUP3 ADD PUSH1 0x14 SWAP1 SLOAD SWAP1 PUSH2 0x100 EXP SWAP1 DIV PUSH1 0xFF AND PUSH1 0x2 DUP2 GT ISZERO PUSH2 0x868 JUMPI PUSH2 0x867 PUSH2 0x10E5 JUMP JUMPDEST JUMPDEST PUSH1 0x2 DUP2 GT ISZERO PUSH2 0x87A JUMPI PUSH2 0x879 PUSH2 0x10E5 JUMP JUMPDEST JUMPDEST DUP2 MSTORE POP POP DUP3 DUP3 DUP2 MLOAD DUP2 LT PUSH2 0x891 JUMPI PUSH2 0x890 PUSH2 0x1114 JUMP JUMPDEST JUMPDEST PUSH1 0x20 MUL PUSH1 0x20 ADD ADD DUP2 SWAP1 MSTORE POP DUP1 DUP1 PUSH2 0x8A7 SWAP1 PUSH2 0x106D JUMP JUMPDEST SWAP2 POP POP PUSH2 0x767 JUMP JUMPDEST POP DUP1 SWAP2 POP POP SWAP2 SWAP1 POP JUMP JUMPDEST PUSH1 0x0 SLOAD DUP2 JUMP JUMPDEST PUSH1 0x0 PUSH1 0x1 PUSH1 0x0 SWAP1 SLOAD SWAP1 PUSH2 0x100 EXP SWAP1 DIV PUSH20 0xFFFFFFFFFFFFFFFFFFFFFFFFFFFFFFFFFFFFFFFF AND PUSH20 0xFFFFFFFFFFFFFFFFFFFFFFFFFFFFFFFFFFFFFFFF AND CALLER PUSH20 0xFFFFFFFFFFFFFFFFFFFFFFFFFFFFFFFFFFFFFFFF AND EQ DUP1 PUSH2 0x966 JUMPI POP PUSH1 0x4 PUSH1 0x0 CALLER PUSH20 0xFFFFFFFFFFFFFFFFFFFFFFFFFFFFFFFFFFFFFFFF AND PUSH20 0xFFFFFFFFFFFFFFFFFFFFFFFFFFFFFFFFFFFFFFFF AND DUP2 MSTORE PUSH1 0x20 ADD SWAP1 DUP2 MSTORE PUSH1 0x20 ADD PUSH1 0x0 KECCAK256 PUSH1 0x0 SWAP1 SLOAD SWAP1 PUSH2 0x100 EXP SWAP1 DIV PUSH1 0xFF AND JUMPDEST PUSH2 0x9A5 JUMPI PUSH1 0x40 MLOAD PUSH32 0x8C379A000000000000000000000000000000000000000000000000000000000 DUP2 MSTORE PUSH1 0x4 ADD PUSH2 0x99C SWAP1 PUSH2 0xE98 JUMP JUMPDEST PUSH1 0x40 MLOAD DUP1 SWAP2 SUB SWAP1 REVERT JUMPDEST DUP2 PUSH1 0x2 PUSH1 0x0 DUP6 DUP2 MSTORE PUSH1 0x20 ADD SWAP1 DUP2 MSTORE PUSH1 0x20 ADD PUSH1 0x0 KECCAK256 PUSH1 0x2 ADD PUSH1 0x14 PUSH2 0x100 EXP DUP2 SLOAD DUP2 PUSH1 0xFF MUL NOT AND SWAP1 DUP4 PUSH1 0x2 DUP2 GT ISZERO PUSH2 0x9DE JUMPI PUSH2 0x9DD PUSH2 0x10E5 JUMP JUMPDEST JUMPDEST MUL OR SWAP1 SSTORE POP PUSH1 0x0 SWAP1 POP SWAP3 SWAP2 POP POP JUMP JUMPDEST PUSH1 0x2 PUSH1 0x20 MSTORE DUP1 PUSH1 0x0 MSTORE PUSH1 0x40 PUSH1 0x0 KECCAK256 PUSH1 0x0 SWAP2 POP SWAP1 POP DUP1 PUSH1 0x0 ADD SLOAD SWAP1 DUP1 PUSH1 0x1 ADD PUSH1 0x0 SWAP1 SLOAD SWAP1 PUSH2 0x100 EXP SWAP1 DIV PUSH20 0xFFFFFFFFFFFFFFFFFFFFFFFFFFFFFFFFFFFFFFFF AND SWAP1 DUP1 PUSH1 0x2 ADD PUSH1 0x0 SWAP1 SLOAD SWAP1 PUSH2 0x100 EXP SWAP1 DIV PUSH20 0xFFFFFFFFFFFFFFFFFFFFFFFFFFFFFFFFFFFFFFFF AND SWAP1 DUP1 PUSH1 0x2 ADD PUSH1 0x14 SWAP1 SLOAD SWAP1 PUSH2 0x100 EXP SWAP1 DIV PUSH1 0xFF AND SWAP1 POP DUP5 JUMP JUMPDEST PUSH1 0x40 MLOAD DUP1 PUSH1 0x80 ADD PUSH1 0x40 MSTORE DUP1 PUSH1 0x0 DUP2 MSTORE PUSH1 0x20 ADD PUSH1 0x0 PUSH20 0xFFFFFFFFFFFFFFFFFFFFFFFFFFFFFFFFFFFFFFFF AND DUP2 MSTORE PUSH1 0x20 ADD PUSH1 0x0 PUSH20 0xFFFFFFFFFFFFFFFFFFFFFFFFFFFFFFFFFFFFFFFF AND DUP2 MSTORE PUSH1 0x20 ADD PUSH1 0x0 PUSH1 0x2 DUP2 GT ISZERO PUSH2 0xACA JUMPI PUSH2 0xAC9 PUSH2 0x10E5 JUMP JUMPDEST JUMPDEST DUP2 MSTORE POP SWAP1 JUMP JUMPDEST PUSH1 0x0 DUP2 CALLDATALOAD SWAP1 POP PUSH2 0xADF DUP2 PUSH2 0x11CA JUMP JUMPDEST SWAP3 SWAP2 POP POP JUMP JUMPDEST PUSH1 0x0 DUP2 MLOAD SWAP1 POP PUSH2 0xAF4 DUP2 PUSH2 0x11CA JUMP JUMPDEST SWAP3 SWAP2 POP POP JUMP JUMPDEST PUSH1 0x0 DUP2 MLOAD SWAP1 POP PUSH2 0xB09 DUP2 PUSH2 0x11E1 JUMP JUMPDEST SWAP3 SWAP2 POP POP JUMP JUMPDEST PUSH1 0x0 DUP2 CALLDATALOAD SWAP1 POP PUSH2 0xB1E DUP2 PUSH2 0x11F8 JUMP JUMPDEST SWAP3 SWAP2 POP POP JUMP JUMPDEST PUSH1 0x0 DUP2 MLOAD SWAP1 POP PUSH2 0xB33 DUP2 PUSH2 0x11F8 JUMP JUMPDEST SWAP3 SWAP2 POP POP JUMP JUMPDEST PUSH1 0x0 PUSH1 0x80 DUP3 DUP5 SUB SLT ISZERO PUSH2 0xB4F JUMPI PUSH2 0xB4E PUSH2 0x1172 JUMP JUMPDEST JUMPDEST PUSH2 0xB59 PUSH1 0x80 PUSH2 0xF18 JUMP JUMPDEST SWAP1 POP PUSH1 0x0 PUSH2 0xB69 DUP5 DUP3 DUP6 ADD PUSH2 0xBC6 JUMP JUMPDEST PUSH1 0x0 DUP4 ADD MSTORE POP PUSH1 0x20 PUSH2 0xB7D DUP5 DUP3 DUP6 ADD PUSH2 0xAE5 JUMP JUMPDEST PUSH1 0x20 DUP4 ADD MSTORE POP PUSH1 0x40 PUSH2 0xB91 DUP5 DUP3 DUP6 ADD PUSH2 0xAFA JUMP JUMPDEST PUSH1 0x40 DUP4 ADD MSTORE POP PUSH1 0x60 PUSH2 0xBA5 DUP5 DUP3 DUP6 ADD PUSH2 0xB24 JUMP JUMPDEST PUSH1 0x60 DUP4 ADD MSTORE POP SWAP3 SWAP2 POP POP JUMP JUMPDEST PUSH1 0x0 DUP2 CALLDATALOAD SWAP1 POP PUSH2 0xBC0 DUP2 PUSH2 0x1208 JUMP JUMPDEST SWAP3 SWAP2 POP POP JUMP JUMPDEST PUSH1 0x0 DUP2 MLOAD SWAP1 POP PUSH2 0xBD5 DUP2 PUSH2 0x1208 JUMP JUMPDEST SWAP3 SWAP2 POP POP JUMP JUMPDEST PUSH1 0x0 PUSH1 0x20 DUP3 DUP5 SUB SLT ISZERO PUSH2 0xBF1 JUMPI PUSH2 0xBF0 PUSH2 0x1177 JUMP JUMPDEST JUMPDEST PUSH1 0x0 PUSH2 0xBFF DUP5 DUP3 DUP6 ADD PUSH2 0xAD0 JUMP JUMPDEST SWAP2 POP POP SWAP3 SWAP2 POP POP JUMP JUMPDEST PUSH1 0x0 PUSH1 0x80 DUP3 DUP5 SUB SLT ISZERO PUSH2 0xC1E JUMPI PUSH2 0xC1D PUSH2 0x1177 JUMP JUMPDEST JUMPDEST PUSH1 0x0 PUSH2 0xC2C DUP5 DUP3 DUP6 ADD PUSH2 0xB39 JUMP JUMPDEST SWAP2 POP POP SWAP3 SWAP2 POP POP JUMP JUMPDEST PUSH1 0x0 PUSH1 0x20 DUP3 DUP5 SUB SLT ISZERO PUSH2 0xC4B JUMPI PUSH2 0xC4A PUSH2 0x1177 JUMP JUMPDEST JUMPDEST PUSH1 0x0 PUSH2 0xC59 DUP5 DUP3 DUP6 ADD PUSH2 0xBB1 JUMP JUMPDEST SWAP2 POP POP SWAP3 SWAP2 POP POP JUMP JUMPDEST PUSH1 0x0 DUP1 PUSH1 0x40 DUP4 DUP6 SUB SLT ISZERO PUSH2 0xC79 JUMPI PUSH2 0xC78 PUSH2 0x1177 JUMP JUMPDEST JUMPDEST PUSH1 0x0 PUSH2 0xC87 DUP6 DUP3 DUP7 ADD PUSH2 0xBB1 JUMP JUMPDEST SWAP3 POP POP PUSH1 0x20 PUSH2 0xC98 DUP6 DUP3 DUP7 ADD PUSH2 0xB0F JUMP JUMPDEST SWAP2 POP POP SWAP3 POP SWAP3 SWAP1 POP JUMP JUMPDEST PUSH1 0x0 PUSH2 0xCAE DUP4 DUP4 PUSH2 0xDA4 JUMP JUMPDEST PUSH1 0x80 DUP4 ADD SWAP1 POP SWAP3 SWAP2 POP POP JUMP JUMPDEST PUSH2 0xCC3 DUP2 PUSH2 0xF87 JUMP JUMPDEST DUP3 MSTORE POP POP JUMP JUMPDEST PUSH2 0xCD2 DUP2 PUSH2 0xF87 JUMP JUMPDEST DUP3 MSTORE POP POP JUMP JUMPDEST PUSH1 0x0 PUSH2 0xCE3 DUP3 PUSH2 0xF4D JUMP JUMPDEST PUSH2 0xCED DUP2 DUP6 PUSH2 0xF65 JUMP JUMPDEST SWAP4 POP PUSH2 0xCF8 DUP4 PUSH2 0xF3D JUMP JUMPDEST DUP1 PUSH1 0x0 JUMPDEST DUP4 DUP2 LT ISZERO PUSH2 0xD29 JUMPI DUP2 MLOAD PUSH2 0xD10 DUP9 DUP3 PUSH2 0xCA2 JUMP JUMPDEST SWAP8 POP PUSH2 0xD1B DUP4 PUSH2 0xF58 JUMP JUMPDEST SWAP3 POP POP PUSH1 0x1 DUP2 ADD SWAP1 POP PUSH2 0xCFC JUMP JUMPDEST POP DUP6 SWAP4 POP POP POP POP SWAP3 SWAP2 POP POP JUMP JUMPDEST PUSH2 0xD3F DUP2 PUSH2 0xF99 JUMP JUMPDEST DUP3 MSTORE POP POP JUMP JUMPDEST PUSH2 0xD4E DUP2 PUSH2 0xFF4 JUMP JUMPDEST DUP3 MSTORE POP POP JUMP JUMPDEST PUSH2 0xD5D DUP2 PUSH2 0xFF4 JUMP JUMPDEST DUP3 MSTORE POP POP JUMP JUMPDEST PUSH2 0xD6C DUP2 PUSH2 0x1006 JUMP JUMPDEST DUP3 MSTORE POP POP JUMP JUMPDEST PUSH2 0xD7B DUP2 PUSH2 0x1006 JUMP JUMPDEST DUP3 MSTORE POP POP JUMP JUMPDEST PUSH1 0x0 PUSH2 0xD8E PUSH1 0x15 DUP4 PUSH2 0xF76 JUMP JUMPDEST SWAP2 POP PUSH2 0xD99 DUP3 PUSH2 0x118D JUMP JUMPDEST PUSH1 0x20 DUP3 ADD SWAP1 POP SWAP2 SWAP1 POP JUMP JUMPDEST PUSH1 0x80 DUP3 ADD PUSH1 0x0 DUP3 ADD MLOAD PUSH2 0xDBA PUSH1 0x0 DUP6 ADD DUP3 PUSH2 0xDF9 JUMP JUMPDEST POP PUSH1 0x20 DUP3 ADD MLOAD PUSH2 0xDCD PUSH1 0x20 DUP6 ADD DUP3 PUSH2 0xCBA JUMP JUMPDEST POP PUSH1 0x40 DUP3 ADD MLOAD PUSH2 0xDE0 PUSH1 0x40 DUP6 ADD DUP3 PUSH2 0xD45 JUMP JUMPDEST POP PUSH1 0x60 DUP3 ADD MLOAD PUSH2 0xDF3 PUSH1 0x60 DUP6 ADD DUP3 PUSH2 0xD63 JUMP JUMPDEST POP POP POP POP JUMP JUMPDEST PUSH2 0xE02 DUP2 PUSH2 0xFEA JUMP JUMPDEST DUP3 MSTORE POP POP JUMP JUMPDEST PUSH2 0xE11 DUP2 PUSH2 0xFEA JUMP JUMPDEST DUP3 MSTORE POP POP JUMP JUMPDEST PUSH1 0x0 PUSH1 0x20 DUP3 ADD SWAP1 POP PUSH2 0xE2C PUSH1 0x0 DUP4 ADD DUP5 PUSH2 0xCC9 JUMP JUMPDEST SWAP3 SWAP2 POP POP JUMP JUMPDEST PUSH1 0x0 PUSH1 0x40 DUP3 ADD SWAP1 POP PUSH2 0xE47 PUSH1 0x0 DUP4 ADD DUP6 PUSH2 0xCC9 JUMP JUMPDEST PUSH2 0xE54 PUSH1 0x20 DUP4 ADD DUP5 PUSH2 0xD54 JUMP JUMPDEST SWAP4 SWAP3 POP POP POP JUMP JUMPDEST PUSH1 0x0 PUSH1 0x20 DUP3 ADD SWAP1 POP DUP2 DUP2 SUB PUSH1 0x0 DUP4 ADD MSTORE PUSH2 0xE75 DUP2 DUP5 PUSH2 0xCD8 JUMP JUMPDEST SWAP1 POP SWAP3 SWAP2 POP POP JUMP JUMPDEST PUSH1 0x0 PUSH1 0x20 DUP3 ADD SWAP1 POP PUSH2 0xE92 PUSH1 0x0 DUP4 ADD DUP5 PUSH2 0xD36 JUMP JUMPDEST SWAP3 SWAP2 POP POP JUMP JUMPDEST PUSH1 0x0 PUSH1 0x20 DUP3 ADD SWAP1 POP DUP2 DUP2 SUB PUSH1 0x0 DUP4 ADD MSTORE PUSH2 0xEB1 DUP2 PUSH2 0xD81 JUMP JUMPDEST SWAP1 POP SWAP2 SWAP1 POP JUMP JUMPDEST PUSH1 0x0 PUSH1 0x20 DUP3 ADD SWAP1 POP PUSH2 0xECD PUSH1 0x0 DUP4 ADD DUP5 PUSH2 0xE08 JUMP JUMPDEST SWAP3 SWAP2 POP POP JUMP JUMPDEST PUSH1 0x0 PUSH1 0x80 DUP3 ADD SWAP1 POP PUSH2 0xEE8 PUSH1 0x0 DUP4 ADD DUP8 PUSH2 0xE08 JUMP JUMPDEST PUSH2 0xEF5 PUSH1 0x20 DUP4 ADD DUP7 PUSH2 0xCC9 JUMP JUMPDEST PUSH2 0xF02 PUSH1 0x40 DUP4 ADD DUP6 PUSH2 0xD54 JUMP JUMPDEST PUSH2 0xF0F PUSH1 0x60 DUP4 ADD DUP5 PUSH2 0xD72 JUMP JUMPDEST SWAP6 SWAP5 POP POP POP POP POP JUMP JUMPDEST PUSH1 0x0 PUSH2 0xF22 PUSH2 0xF33 JUMP JUMPDEST SWAP1 POP PUSH2 0xF2E DUP3 DUP3 PUSH2 0x103C JUMP JUMPDEST SWAP2 SWAP1 POP JUMP JUMPDEST PUSH1 0x0 PUSH1 0x40 MLOAD SWAP1 POP SWAP1 JUMP JUMPDEST PUSH1 0x0 DUP2 SWAP1 POP PUSH1 0x20 DUP3 ADD SWAP1 POP SWAP2 SWAP1 POP JUMP JUMPDEST PUSH1 0x0 DUP2 MLOAD SWAP1 POP SWAP2 SWAP1 POP JUMP JUMPDEST PUSH1 0x0 PUSH1 0x20 DUP3 ADD SWAP1 POP SWAP2 SWAP1 POP JUMP JUMPDEST PUSH1 0x0 DUP3 DUP3 MSTORE PUSH1 0x20 DUP3 ADD SWAP1 POP SWAP3 SWAP2 POP POP JUMP JUMPDEST PUSH1 0x0 DUP3 DUP3 MSTORE PUSH1 0x20 DUP3 ADD SWAP1 POP SWAP3 SWAP2 POP POP JUMP JUMPDEST PUSH1 0x0 PUSH2 0xF92 DUP3 PUSH2 0xFCA JUMP JUMPDEST SWAP1 POP SWAP2 SWAP1 POP JUMP JUMPDEST PUSH1 0x0 DUP2 ISZERO ISZERO SWAP1 POP SWAP2 SWAP1 POP JUMP JUMPDEST PUSH1 0x0 PUSH2 0xFB0 DUP3 PUSH2 0xF87 JUMP JUMPDEST SWAP1 POP SWAP2 SWAP1 POP JUMP JUMPDEST PUSH1 0x0 DUP2 SWAP1 POP PUSH2 0xFC5 DUP3 PUSH2 0x11B6 JUMP JUMPDEST SWAP2 SWAP1 POP JUMP JUMPDEST PUSH1 0x0 PUSH20 0xFFFFFFFFFFFFFFFFFFFFFFFFFFFFFFFFFFFFFFFF DUP3 AND SWAP1 POP SWAP2 SWAP1 POP JUMP JUMPDEST PUSH1 0x0 DUP2 SWAP1 POP SWAP2 SWAP1 POP JUMP JUMPDEST PUSH1 0x0 PUSH2 0xFFF DUP3 PUSH2 0x1018 JUMP JUMPDEST SWAP1 POP SWAP2 SWAP1 POP JUMP JUMPDEST PUSH1 0x0 PUSH2 0x1011 DUP3 PUSH2 0xFB7 JUMP JUMPDEST SWAP1 POP SWAP2 SWAP1 POP JUMP JUMPDEST PUSH1 0x0 PUSH2 0x1023 DUP3 PUSH2 0x102A JUMP JUMPDEST SWAP1 POP SWAP2 SWAP1 POP JUMP JUMPDEST PUSH1 0x0 PUSH2 0x1035 DUP3 PUSH2 0xFCA JUMP JUMPDEST SWAP1 POP SWAP2 SWAP1 POP JUMP JUMPDEST PUSH2 0x1045 DUP3 PUSH2 0x117C JUMP JUMPDEST DUP2 ADD DUP2 DUP2 LT PUSH8 0xFFFFFFFFFFFFFFFF DUP3 GT OR ISZERO PUSH2 0x1064 JUMPI PUSH2 0x1063 PUSH2 0x1143 JUMP JUMPDEST JUMPDEST DUP1 PUSH1 0x40 MSTORE POP POP POP JUMP JUMPDEST PUSH1 0x0 PUSH2 0x1078 DUP3 PUSH2 0xFEA JUMP JUMPDEST SWAP2 POP PUSH32 0xFFFFFFFFFFFFFFFFFFFFFFFFFFFFFFFFFFFFFFFFFFFFFFFFFFFFFFFFFFFFFFFF DUP3 EQ ISZERO PUSH2 0x10AB JUMPI PUSH2 0x10AA PUSH2 0x10B6 JUMP JUMPDEST JUMPDEST PUSH1 0x1 DUP3 ADD SWAP1 POP SWAP2 SWAP1 POP JUMP JUMPDEST PUSH32 0x4E487B7100000000000000000000000000000000000000000000000000000000 PUSH1 0x0 MSTORE PUSH1 0x11 PUSH1 0x4 MSTORE PUSH1 0x24 PUSH1 0x0 REVERT JUMPDEST PUSH32 0x4E487B7100000000000000000000000000000000000000000000000000000000 PUSH1 0x0 MSTORE PUSH1 0x21 PUSH1 0x4 MSTORE PUSH1 0x24 PUSH1 0x0 REVERT JUMPDEST PUSH32 0x4E487B7100000000000000000000000000000000000000000000000000000000 PUSH1 0x0 MSTORE PUSH1 0x32 PUSH1 0x4 MSTORE PUSH1 0x24 PUSH1 0x0 REVERT JUMPDEST PUSH32 0x4E487B7100000000000000000000000000000000000000000000000000000000 PUSH1 0x0 MSTORE PUSH1 0x41 PUSH1 0x4 MSTORE PUSH1 0x24 PUSH1 0x0 REVERT JUMPDEST PUSH1 0x0 DUP1 REVERT JUMPDEST PUSH1 0x0 DUP1 REVERT JUMPDEST PUSH1 0x0 PUSH1 0x1F NOT PUSH1 0x1F DUP4 ADD AND SWAP1 POP SWAP2 SWAP1 POP JUMP JUMPDEST PUSH32 0x596F75206C61636B207065726D697373696F6E732E0000000000000000000000 PUSH1 0x0 DUP3 ADD MSTORE POP JUMP JUMPDEST PUSH1 0x3 DUP2 LT PUSH2 0x11C7 JUMPI PUSH2 0x11C6 PUSH2 0x10E5 JUMP JUMPDEST JUMPDEST POP JUMP JUMPDEST PUSH2 0x11D3 DUP2 PUSH2 0xF87 JUMP JUMPDEST DUP2 EQ PUSH2 0x11DE JUMPI PUSH1 0x0 DUP1 REVERT JUMPDEST POP JUMP JUMPDEST PUSH2 0x11EA DUP2 PUSH2 0xFA5 JUMP JUMPDEST DUP2 EQ PUSH2 0x11F5 JUMPI PUSH1 0x0 DUP1 REVERT JUMPDEST POP JUMP JUMPDEST PUSH1 0x3 DUP2 LT PUSH2 0x1205 JUMPI PUSH1 0x0 DUP1 REVERT JUMPDEST POP JUMP JUMPDEST PUSH2 0x1211 DUP2 PUSH2 0xFEA JUMP JUMPDEST DUP2 EQ PUSH2 0x121C JUMPI PUSH1 0x0 DUP1 REVERT JUMPDEST POP JUMP INVALID LOG2 PUSH5 0x6970667358 0x22 SLT KECCAK256 NUMBER SWAP1 0xE4 XOR PUSH2 0xEAE8 0xC7 RETURNDATASIZE 0x1E SWAP13 0x25 0xD5 ISZERO DUP6 0xCB 0x2B 0xCE 0xC JUMPDEST 0x5E PUSH20 0xF803333F1A3636E3996A64736F6C634300080700 CALLER "
		},
		"gasEstimates": {
			"creation": {
				"codeDepositCost": "938600",
				"executionCost": "infinite",
				"totalCost": "infinite"
			},
			"external": {
				"author()": "2581",
				"createIssue()": "infinite",
				"getActiveIssueList(uint256)": "infinite",
				"getIssueList(uint256)": "infinite",
				"givePermission(address)": "26983",
				"id()": "2451",
				"issueMap(uint256)": "infinite",
				"updateIssueStatus(uint256,uint8)": "29620"
			}
		},
		"methodIdentifiers": {
			"author()": "a6c3e6b9",
			"createIssue()": "907d57aa",
			"getActiveIssueList(uint256)": "85738b48",
			"getIssueList(uint256)": "acb82e29",
			"givePermission(address)": "3d391f70",
			"id()": "af640d0f",
			"issueMap(uint256)": "ee86eb08",
			"updateIssueStatus(uint256,uint8)": "b07c7f61"
		}
	},
	"abi": [
		{
			"inputs": [
				{
					"internalType": "uint256",
					"name": "_id",
					"type": "uint256"
				},
				{
					"internalType": "address",
					"name": "_author",
					"type": "address"
				},
				{
					"internalType": "contract IssueFactory",
					"name": "_issueFactory",
					"type": "address"
				}
			],
			"stateMutability": "nonpayable",
			"type": "constructor"
		},
		{
			"inputs": [],
			"name": "author",
			"outputs": [
				{
					"internalType": "address",
					"name": "",
					"type": "address"
				}
			],
			"stateMutability": "view",
			"type": "function"
		},
		{
			"inputs": [],
			"name": "createIssue",
			"outputs": [],
			"stateMutability": "nonpayable",
			"type": "function"
		},
		{
			"inputs": [
				{
					"internalType": "uint256",
					"name": "_numOfIssues",
					"type": "uint256"
				}
			],
			"name": "getActiveIssueList",
			"outputs": [
				{
					"components": [
						{
							"internalType": "uint256",
							"name": "id",
							"type": "uint256"
						},
						{
							"internalType": "address",
							"name": "author",
							"type": "address"
						},
						{
							"internalType": "contract Project",
							"name": "project",
							"type": "address"
						},
						{
							"internalType": "enum Status",
							"name": "status",
							"type": "uint8"
						}
					],
					"internalType": "struct Issue[]",
					"name": "_issueList",
					"type": "tuple[]"
				}
			],
			"stateMutability": "view",
			"type": "function"
		},
		{
			"inputs": [
				{
					"internalType": "uint256",
					"name": "_numOfIssues",
					"type": "uint256"
				}
			],
			"name": "getIssueList",
			"outputs": [
				{
					"components": [
						{
							"internalType": "uint256",
							"name": "id",
							"type": "uint256"
						},
						{
							"internalType": "address",
							"name": "author",
							"type": "address"
						},
						{
							"internalType": "contract Project",
							"name": "project",
							"type": "address"
						},
						{
							"internalType": "enum Status",
							"name": "status",
							"type": "uint8"
						}
					],
					"internalType": "struct Issue[]",
					"name": "_issueList",
					"type": "tuple[]"
				}
			],
			"stateMutability": "view",
			"type": "function"
		},
		{
			"inputs": [
				{
					"internalType": "address",
					"name": "_allowed",
					"type": "address"
				}
			],
			"name": "givePermission",
			"outputs": [],
			"stateMutability": "nonpayable",
			"type": "function"
		},
		{
			"inputs": [],
			"name": "id",
			"outputs": [
				{
					"internalType": "uint256",
					"name": "",
					"type": "uint256"
				}
			],
			"stateMutability": "view",
			"type": "function"
		},
		{
			"inputs": [
				{
					"internalType": "uint256",
					"name": "",
					"type": "uint256"
				}
			],
			"name": "issueMap",
			"outputs": [
				{
					"internalType": "uint256",
					"name": "id",
					"type": "uint256"
				},
				{
					"internalType": "address",
					"name": "author",
					"type": "address"
				},
				{
					"internalType": "contract Project",
					"name": "project",
					"type": "address"
				},
				{
					"internalType": "enum Status",
					"name": "status",
					"type": "uint8"
				}
			],
			"stateMutability": "view",
			"type": "function"
		},
		{
			"inputs": [
				{
					"internalType": "uint256",
					"name": "_issueId",
					"type": "uint256"
				},
				{
					"internalType": "enum Status",
					"name": "_status",
					"type": "uint8"
				}
			],
			"name": "updateIssueStatus",
			"outputs": [
				{
					"internalType": "bool",
					"name": "success",
					"type": "bool"
				}
			],
			"stateMutability": "nonpayable",
			"type": "function"
		}
	]
}